20230504-11:08:47.342060000 : 8=FIXT.1.1|9=113|35=A|34=1|49=LAMB|52=20230504-11:08:47.340|56=XTRM|98=0|108=30|141=Y|553=LAMBFIXMGR|554=Pedlane11@|1137=FIX50SP1|10=046|
20230504-11:09:16.009115000 : 8=FIXT.1.1|9=113|35=A|34=1|49=LAMB|52=20230504-11:09:16.007|56=XTRM|98=0|108=30|141=Y|553=LAMBFIXMGR|554=Pedlane11@|1137=FIX50SP1|10=043|
20230505-10:47:50.835196000 : 8=FIXT.1.1|9=113|35=A|34=1|49=LAMB|52=20230505-10:47:50.833|56=XTRM|98=0|108=30|141=Y|553=LAMBFIXMGR|554=Pedlane11@|1137=FIX50SP1|10=050|
20230505-10:47:53.980510000 : 8=FIXT.1.1|9=000076|35=A|49=XTRM|56=LAMB|34=1|52=20230505-10:47:53.911|98=0|108=30|141=Y|1137=8|10=231|
20230505-10:48:06.831470000 : 8=FIXT.1.1|9=128|35=D|34=2|49=LAMB|52=20230505-10:48:06.831|56=XTRM|11=00001|22=99|38=10000|40=1|48=TRANSCORP|54=1|59=0|60=20230505-10:48:06.830|10=207|
20230505-10:48:06.999289000 : 8=FIXT.1.1|9=000356|35=8|49=XTRM|56=LAMB|34=2|57=LAMBFIXMGR|52=20230505-10:48:06.929|37=NONE|11=00001|453=3|448=LAMBFIXMGR|447=C|452=11|448=LAMBFIXMGR|447=C|452=36|448=LAMB|447=C|452=7|17=12|150=8|39=8|103=99|48=TRANSCORP|22=99|54=1|38=10000|40=1|59=0|151=0|14=0|60=20230505-10:48:06.907|58=(1180): No order within permitted trading price range for market order to match with|10=217|
20230505-10:48:07.000058000 : 8=FIXT.1.1|9=107|35=3|34=3|49=LAMB|52=20230505-10:48:06.999|56=XTRM|45=2|58=Tag appears more than once|371=447|372=8|373=13|10=165|
20230505-10:48:29.854099000 : 8=FIXT.1.1|9=60|35=1|34=4|49=LAMB|52=20230505-10:48:29.853|56=XTRM|112=TEST|10=166|
20230505-10:48:29.982319000 : 8=FIXT.1.1|9=000060|35=0|49=XTRM|56=LAMB|34=3|52=20230505-10:48:29.912|112=TEST|10=096|
20230505-10:48:59.697409000 : 8=FIXT.1.1|9=51|35=0|34=5|49=LAMB|52=20230505-10:48:59.696|56=XTRM|10=156|
20230505-10:49:00.067492000 : 8=FIXT.1.1|9=000051|35=0|49=XTRM|56=LAMB|34=4|52=20230505-10:48:59.997|10=095|
20230505-10:49:29.677294000 : 8=FIXT.1.1|9=51|35=0|34=6|49=LAMB|52=20230505-10:49:29.676|56=XTRM|10=153|
20230505-10:49:30.099080000 : 8=FIXT.1.1|9=000051|35=0|49=XTRM|56=LAMB|34=5|52=20230505-10:49:30.029|10=072|
20230505-10:49:59.595337000 : 8=FIXT.1.1|9=51|35=0|34=7|49=LAMB|52=20230505-10:49:59.594|56=XTRM|10=156|
20230505-10:50:00.132322000 : 8=FIXT.1.1|9=000051|35=0|49=XTRM|56=LAMB|34=6|52=20230505-10:50:00.062|10=059|
20230505-10:50:29.507821000 : 8=FIXT.1.1|9=51|35=0|34=8|49=LAMB|52=20230505-10:50:29.507|56=XTRM|10=140|
20230505-10:50:30.585625000 : 8=FIXT.1.1|9=000051|35=0|49=XTRM|56=LAMB|34=7|52=20230505-10:50:30.092|10=066|
20230505-10:50:59.841497000 : 8=FIXT.1.1|9=51|35=0|34=9|49=LAMB|52=20230505-10:50:59.841|56=XTRM|10=145|
20230505-10:51:00.196322000 : 8=FIXT.1.1|9=000051|35=0|49=XTRM|56=LAMB|34=8|52=20230505-10:51:00.126|10=063|
20230505-14:40:44.870463000 : 8=FIXT.1.1|9=113|35=A|34=1|49=LAMB|52=20230505-14:40:44.869|56=XTRM|98=0|108=30|141=Y|553=LAMBFIXMGR|554=Pedlane11@|1137=FIX50SP1|10=059|
20230505-14:40:48.018389000 : 8=FIXT.1.1|9=000076|35=A|49=XTRM|56=LAMB|34=1|52=20230505-14:40:47.955|98=0|108=30|141=Y|1137=8|10=239|
20230505-14:40:51.182500000 : 8=FIXT.1.1|9=124|35=D|34=2|49=LAMB|52=20230505-14:40:51.182|56=XTRM|11=00001|22=99|38=1|40=1|48=TRANSCORP|54=1|59=0|60=20230505-14:40:51.181|10=001|
20230505-14:40:51.312491000 : 8=FIXT.1.1|9=000352|35=8|49=XTRM|56=LAMB|34=2|57=LAMBFIXMGR|52=20230505-14:40:51.249|37=NONE|11=00001|453=3|448=LAMBFIXMGR|447=C|452=11|448=LAMBFIXMGR|447=C|452=36|448=LAMB|447=C|452=7|17=18|150=8|39=8|103=99|48=TRANSCORP|22=99|54=1|38=1|40=1|59=0|151=0|14=0|60=20230505-14:40:51.245|58=(1180): No order within permitted trading price range for market order to match with|10=009|
20230505-14:40:51.313296000 : 8=FIXT.1.1|9=107|35=3|34=3|49=LAMB|52=20230505-14:40:51.312|56=XTRM|45=2|58=Tag appears more than once|371=447|372=8|373=13|10=140|
20230505-15:28:28.297537000 : 8=FIXT.1.1|9=113|35=A|34=1|49=LAMB|52=20230505-15:28:28.296|56=XTRM|98=0|108=30|141=Y|553=LAMBFIXMGR|554=Pedlane11@|1137=FIX50SP1|10=062|
20230505-15:28:31.445586000 : 8=FIXT.1.1|9=000076|35=A|49=XTRM|56=LAMB|34=1|52=20230505-15:28:31.379|98=0|108=30|141=Y|1137=8|10=239|
20230505-15:28:33.847116000 : 8=FIXT.1.1|9=131|35=D|34=2|49=LAMB|52=20230505-15:28:33.846|56=XTRM|11=00001|22=99|38=1|40=2|44=100|48=TRANSCORP|54=1|59=0|60=20230505-15:28:33.846|10=084|
20230505-15:28:33.980430000 : 8=FIXT.1.1|9=000336|35=8|49=XTRM|56=LAMB|34=2|57=LAMBFIXMGR|52=20230505-15:28:33.914|37=NONE|11=00001|453=3|448=LAMBFIXMGR|447=C|452=11|448=LAMBFIXMGR|447=C|452=36|448=LAMB|447=C|452=7|17=19|150=8|39=8|103=99|48=TRANSCORP|22=99|54=1|38=1|40=2|44=100.0000000|59=0|151=0|14=0|60=20230505-15:28:33.911|58=(1037): Account choice not supported for this message|10=141|
20230505-15:28:33.981146000 : 8=FIXT.1.1|9=107|35=3|34=3|49=LAMB|52=20230505-15:28:33.980|56=XTRM|45=2|58=Tag appears more than once|371=447|372=8|373=13|10=158|
20230505-15:29:03.836009000 : 8=FIXT.1.1|9=51|35=0|34=4|49=LAMB|52=20230505-15:29:03.835|56=XTRM|10=143|
20230505-15:29:03.967709000 : 8=FIXT.1.1|9=000051|35=0|49=XTRM|56=LAMB|34=3|52=20230505-15:29:03.901|10=072|
20230505-15:29:33.712843000 : 8=FIXT.1.1|9=51|35=0|34=5|49=LAMB|52=20230505-15:29:33.712|56=XTRM|10=141|
20230505-15:29:33.844997000 : 8=FIXT.1.1|9=000051|35=0|49=XTRM|56=LAMB|34=4|52=20230505-15:29:33.778|10=088|
20230507-19:07:47.494819000 : 8=FIXT.1.1|9=113|35=A|34=1|49=LAMB|52=20230507-19:07:47.493|56=XTRM|98=0|108=30|141=Y|553=LAMBFIXMGR|554=Pedlane11@|1137=FIX50SP1|10=065|
20230508-13:04:11.974904000 : 8=FIXT.1.1|9=113|35=A|34=1|49=LAMB|52=20230508-13:04:11.974|56=XTRM|98=0|108=30|141=Y|553=LAMBFIXMGR|554=Pedlane11@|1137=FIX50SP1|10=052|
20230508-13:04:15.117328000 : 8=FIXT.1.1|9=000076|35=A|49=XTRM|56=LAMB|34=1|52=20230508-13:04:15.055|98=0|108=30|141=Y|1137=8|10=227|
20230508-13:04:19.056400000 : 8=FIXT.1.1|9=131|35=D|34=2|49=LAMB|52=20230508-13:04:19.056|56=XTRM|11=00001|22=99|38=1|40=2|44=100|48=TRANSCORP|54=1|59=0|60=20230508-13:04:19.055|10=067|
20230508-13:04:19.185458000 : 8=FIXT.1.1|9=000336|35=8|49=XTRM|56=LAMB|34=2|57=LAMBFIXMGR|52=20230508-13:04:19.121|37=NONE|11=00001|453=3|448=LAMBFIXMGR|447=C|452=11|448=LAMBFIXMGR|447=C|452=36|448=LAMB|447=C|452=7|17=19|150=8|39=8|103=99|48=TRANSCORP|22=99|54=1|38=1|40=2|44=100.0000000|59=0|151=0|14=0|60=20230508-13:04:19.119|58=(1037): Account choice not supported for this message|10=129|
20230508-13:04:19.186237000 : 8=FIXT.1.1|9=107|35=3|34=3|49=LAMB|52=20230508-13:04:19.185|56=XTRM|45=2|58=Tag appears more than once|371=447|372=8|373=13|10=154|
20230508-13:04:49.041201000 : 8=FIXT.1.1|9=51|35=0|34=4|49=LAMB|52=20230508-13:04:49.040|56=XTRM|10=135|
20230508-13:04:49.166060000 : 8=FIXT.1.1|9=000051|35=0|49=XTRM|56=LAMB|34=3|52=20230508-13:04:49.104|10=071|
20230508-13:05:19.198480000 : 8=FIXT.1.1|9=000051|35=0|49=XTRM|56=LAMB|34=4|52=20230508-13:05:19.136|10=075|
20230508-13:05:19.199560000 : 8=FIXT.1.1|9=51|35=0|34=5|49=LAMB|52=20230508-13:05:19.199|56=XTRM|10=149|
20230508-13:05:49.236902000 : 8=FIXT.1.1|9=000051|35=0|49=XTRM|56=LAMB|34=5|52=20230508-13:05:49.174|10=081|
20230508-13:05:49.237697000 : 8=FIXT.1.1|9=51|35=0|34=6|49=LAMB|52=20230508-13:05:49.237|56=XTRM|10=146|
20230508-13:06:19.270586000 : 8=FIXT.1.1|9=000051|35=0|49=XTRM|56=LAMB|34=6|52=20230508-13:06:19.208|10=078|
20230508-13:06:19.271440000 : 8=FIXT.1.1|9=51|35=0|34=7|49=LAMB|52=20230508-13:06:19.271|56=XTRM|10=143|
20230508-13:06:49.308547000 : 8=FIXT.1.1|9=000051|35=0|49=XTRM|56=LAMB|34=7|52=20230508-13:06:49.246|10=084|
20230508-13:06:49.309352000 : 8=FIXT.1.1|9=51|35=0|34=8|49=LAMB|52=20230508-13:06:49.309|56=XTRM|10=149|
20230508-13:07:19.345362000 : 8=FIXT.1.1|9=000051|35=0|49=XTRM|56=LAMB|34=8|52=20230508-13:07:19.283|10=084|
20230508-13:07:19.346307000 : 8=FIXT.1.1|9=51|35=0|34=9|49=LAMB|52=20230508-13:07:19.345|56=XTRM|10=148|
20230508-13:07:49.381686000 : 8=FIXT.1.1|9=000051|35=0|49=XTRM|56=LAMB|34=9|52=20230508-13:07:49.320|10=080|
20230508-13:07:49.382710000 : 8=FIXT.1.1|9=52|35=0|34=10|49=LAMB|52=20230508-13:07:49.382|56=XTRM|10=193|
20230508-13:08:19.418461000 : 8=FIXT.1.1|9=000052|35=0|49=XTRM|56=LAMB|34=10|52=20230508-13:08:19.356|10=128|
20230508-13:08:19.419422000 : 8=FIXT.1.1|9=52|35=0|34=11|49=LAMB|52=20230508-13:08:19.419|56=XTRM|10=193|
20230508-13:08:49.386976000 : 8=FIXT.1.1|9=52|35=0|34=12|49=LAMB|52=20230508-13:08:49.386|56=XTRM|10=200|
20230508-13:08:49.456007000 : 8=FIXT.1.1|9=000052|35=0|49=XTRM|56=LAMB|34=11|52=20230508-13:08:49.394|10=134|
20230508-13:09:19.303533000 : 8=FIXT.1.1|9=52|35=0|34=13|49=LAMB|52=20230508-13:09:19.303|56=XTRM|10=188|
20230508-13:09:19.428603000 : 8=FIXT.1.1|9=000052|35=0|49=XTRM|56=LAMB|34=12|52=20230508-13:09:19.367|10=133|
20230508-13:09:49.161146000 : 8=FIXT.1.1|9=52|35=0|34=14|49=LAMB|52=20230508-13:09:49.160|56=XTRM|10=193|
20230508-13:09:49.286594000 : 8=FIXT.1.1|9=000052|35=0|49=XTRM|56=LAMB|34=13|52=20230508-13:09:49.224|10=129|
20230508-13:10:19.578241000 : 8=FIXT.1.1|9=000052|35=0|49=XTRM|56=LAMB|34=14|52=20230508-13:10:19.516|10=123|
20230508-13:10:19.579451000 : 8=FIXT.1.1|9=52|35=0|34=15|49=LAMB|52=20230508-13:10:19.579|56=XTRM|10=197|
20230508-13:10:49.073296000 : 8=FIXT.1.1|9=52|35=0|34=16|49=LAMB|52=20230508-13:10:49.072|56=XTRM|10=189|
20230508-13:10:49.198513000 : 8=FIXT.1.1|9=000052|35=0|49=XTRM|56=LAMB|34=15|52=20230508-13:10:49.137|10=126|
20230508-13:11:19.523661000 : 8=FIXT.1.1|9=52|35=0|34=17|49=LAMB|52=20230508-13:11:19.523|56=XTRM|10=189|
20230508-13:11:19.649241000 : 8=FIXT.1.1|9=000052|35=0|49=XTRM|56=LAMB|34=16|52=20230508-13:11:19.587|10=134|
20230508-13:11:49.691772000 : 8=FIXT.1.1|9=000052|35=0|49=XTRM|56=LAMB|34=17|52=20230508-13:11:49.629|10=135|
20230508-13:11:49.692858000 : 8=FIXT.1.1|9=52|35=0|34=18|49=LAMB|52=20230508-13:11:49.692|56=XTRM|10=200|
20230508-13:12:19.731981000 : 8=FIXT.1.1|9=000052|35=0|49=XTRM|56=LAMB|34=18|52=20230508-13:12:19.670|10=130|
20230508-13:12:19.732743000 : 8=FIXT.1.1|9=52|35=0|34=19|49=LAMB|52=20230508-13:12:19.732|56=XTRM|10=194|
20230508-13:12:49.706154000 : 8=FIXT.1.1|9=52|35=0|34=20|49=LAMB|52=20230508-13:12:49.705|56=XTRM|10=189|
20230508-13:12:49.774243000 : 8=FIXT.1.1|9=000052|35=0|49=XTRM|56=LAMB|34=19|52=20230508-13:12:49.710|10=129|
20230508-13:13:19.629158000 : 8=FIXT.1.1|9=52|35=0|34=21|49=LAMB|52=20230508-13:13:19.628|56=XTRM|10=192|
20230508-13:13:19.753525000 : 8=FIXT.1.1|9=000052|35=0|49=XTRM|56=LAMB|34=20|52=20230508-13:13:19.692|10=128|
20230508-13:13:49.485549000 : 8=FIXT.1.1|9=52|35=0|34=22|49=LAMB|52=20230508-13:13:49.485|56=XTRM|10=197|
20230508-13:13:49.611125000 : 8=FIXT.1.1|9=000052|35=0|49=XTRM|56=LAMB|34=21|52=20230508-13:13:49.549|10=133|
20230508-13:14:19.214702000 : 8=FIXT.1.1|9=52|35=0|34=23|49=LAMB|52=20230508-13:14:19.214|56=XTRM|10=186|
20230508-13:14:19.340109000 : 8=FIXT.1.1|9=000052|35=0|49=XTRM|56=LAMB|34=22|52=20230508-13:14:19.278|10=131|
20230508-13:14:49.743908000 : 8=FIXT.1.1|9=52|35=0|34=24|49=LAMB|52=20230508-13:14:49.743|56=XTRM|10=197|
20230508-13:14:49.869280000 : 8=FIXT.1.1|9=000052|35=0|49=XTRM|56=LAMB|34=23|52=20230508-13:14:49.807|10=133|
20230508-13:15:19.230394000 : 8=FIXT.1.1|9=52|35=0|34=25|49=LAMB|52=20230508-13:15:19.229|56=XTRM|10=195|
20230508-13:15:19.355337000 : 8=FIXT.1.1|9=000052|35=0|49=XTRM|56=LAMB|34=24|52=20230508-13:15:19.294|10=132|
20230508-13:15:49.503181000 : 8=FIXT.1.1|9=52|35=0|34=26|49=LAMB|52=20230508-13:15:49.502|56=XTRM|10=193|
20230508-13:15:49.633094000 : 8=FIXT.1.1|9=000052|35=0|49=XTRM|56=LAMB|34=25|52=20230508-13:15:49.567|10=139|
20230508-13:16:19.644425000 : 8=FIXT.1.1|9=52|35=0|34=27|49=LAMB|52=20230508-13:16:19.643|56=XTRM|10=198|
20230508-13:16:19.771612000 : 8=FIXT.1.1|9=000052|35=0|49=XTRM|56=LAMB|34=26|52=20230508-13:16:19.708|10=135|
20230508-13:16:49.650729000 : 8=FIXT.1.1|9=52|35=0|34=28|49=LAMB|52=20230508-13:16:49.650|56=XTRM|10=200|
20230508-13:16:49.775743000 : 8=FIXT.1.1|9=000052|35=0|49=XTRM|56=LAMB|34=27|52=20230508-13:16:49.714|10=136|
20230508-13:17:19.525151000 : 8=FIXT.1.1|9=52|35=0|34=29|49=LAMB|52=20230508-13:17:19.524|56=XTRM|10=199|
20230508-13:17:19.651469000 : 8=FIXT.1.1|9=000052|35=0|49=XTRM|56=LAMB|34=28|52=20230508-13:17:19.589|10=145|
20230508-13:17:49.268903000 : 8=FIXT.1.1|9=52|35=0|34=30|49=LAMB|52=20230508-13:17:49.268|56=XTRM|10=199|
20230508-13:17:49.394383000 : 8=FIXT.1.1|9=000052|35=0|49=XTRM|56=LAMB|34=29|52=20230508-13:17:49.333|10=136|
20230508-13:18:19.764910000 : 8=FIXT.1.1|9=52|35=0|34=31|49=LAMB|52=20230508-13:18:19.764|56=XTRM|10=199|
20230508-13:18:19.890214000 : 8=FIXT.1.1|9=000052|35=0|49=XTRM|56=LAMB|34=30|52=20230508-13:18:19.829|10=136|
20230508-13:18:49.227305000 : 8=FIXT.1.1|9=52|35=0|34=32|49=LAMB|52=20230508-13:18:49.226|56=XTRM|10=196|
20230508-13:18:49.354470000 : 8=FIXT.1.1|9=000052|35=0|49=XTRM|56=LAMB|34=31|52=20230508-13:18:49.291|10=133|
20230508-13:19:19.438018000 : 8=FIXT.1.1|9=52|35=0|34=33|49=LAMB|52=20230508-13:19:19.437|56=XTRM|10=199|
20230508-13:19:19.562785000 : 8=FIXT.1.1|9=000052|35=0|49=XTRM|56=LAMB|34=32|52=20230508-13:19:19.501|10=126|
20230508-13:19:49.510886000 : 8=FIXT.1.1|9=52|35=0|34=34|49=LAMB|52=20230508-13:19:49.510|56=XTRM|10=195|
20230508-13:19:49.636081000 : 8=FIXT.1.1|9=000052|35=0|49=XTRM|56=LAMB|34=33|52=20230508-13:19:49.575|10=141|
20230508-13:20:19.447413000 : 8=FIXT.1.1|9=52|35=0|34=35|49=LAMB|52=20230508-13:20:19.446|56=XTRM|10=193|
20230508-13:20:19.572628000 : 8=FIXT.1.1|9=000052|35=0|49=XTRM|56=LAMB|34=34|52=20230508-13:20:19.511|10=121|
20230508-13:20:49.254017000 : 8=FIXT.1.1|9=52|35=0|34=36|49=LAMB|52=20230508-13:20:49.253|56=XTRM|10=193|
20230508-13:20:49.379044000 : 8=FIXT.1.1|9=000052|35=0|49=XTRM|56=LAMB|34=35|52=20230508-13:20:49.318|10=130|
20230508-13:21:19.410405000 : 8=FIXT.1.1|9=000052|35=0|49=XTRM|56=LAMB|34=36|52=20230508-13:21:19.349|10=133|
20230508-13:21:19.411215000 : 8=FIXT.1.1|9=52|35=0|34=37|49=LAMB|52=20230508-13:21:19.410|56=XTRM|10=187|
20230508-13:21:49.446742000 : 8=FIXT.1.1|9=000052|35=0|49=XTRM|56=LAMB|34=37|52=20230508-13:21:49.385|10=137|
20230508-13:21:49.447292000 : 8=FIXT.1.1|9=52|35=0|34=38|49=LAMB|52=20230508-13:21:49.447|56=XTRM|10=201|
20230508-13:22:19.483286000 : 8=FIXT.1.1|9=000052|35=0|49=XTRM|56=LAMB|34=38|52=20230508-13:22:19.422|10=128|
20230508-13:22:19.483846000 : 8=FIXT.1.1|9=52|35=0|34=39|49=LAMB|52=20230508-13:22:19.483|56=XTRM|10=200|
20230508-13:22:49.514629000 : 8=FIXT.1.1|9=000052|35=0|49=XTRM|56=LAMB|34=39|52=20230508-13:22:49.453|10=136|
20230508-13:22:49.515235000 : 8=FIXT.1.1|9=52|35=0|34=40|49=LAMB|52=20230508-13:22:49.515|56=XTRM|10=191|
20230508-13:23:19.438835000 : 8=FIXT.1.1|9=52|35=0|34=41|49=LAMB|52=20230508-13:23:19.438|56=XTRM|10=194|
20230508-13:23:19.553666000 : 8=FIXT.1.1|9=000052|35=0|49=XTRM|56=LAMB|34=40|52=20230508-13:23:19.493|10=130|
20230508-13:23:49.336670000 : 8=FIXT.1.1|9=52|35=0|34=42|49=LAMB|52=20230508-13:23:49.335|56=XTRM|10=194|
20230508-13:23:49.461680000 : 8=FIXT.1.1|9=000052|35=0|49=XTRM|56=LAMB|34=41|52=20230508-13:23:49.400|10=122|
20230508-13:24:19.092405000 : 8=FIXT.1.1|9=52|35=0|34=43|49=LAMB|52=20230508-13:24:19.091|56=XTRM|10=192|
20230508-13:24:19.216979000 : 8=FIXT.1.1|9=000052|35=0|49=XTRM|56=LAMB|34=42|52=20230508-13:24:19.156|10=129|
20230508-13:24:49.546763000 : 8=FIXT.1.1|9=52|35=0|34=44|49=LAMB|52=20230508-13:24:49.546|56=XTRM|10=201|
20230508-13:24:49.659446000 : 8=FIXT.1.1|9=000052|35=0|49=XTRM|56=LAMB|34=43|52=20230508-13:24:49.598|10=143|
20230508-13:25:19.013302000 : 8=FIXT.1.1|9=52|35=0|34=45|49=LAMB|52=20230508-13:25:19.012|56=XTRM|10=188|
20230508-13:25:19.139915000 : 8=FIXT.1.1|9=000052|35=0|49=XTRM|56=LAMB|34=44|52=20230508-13:25:19.077|10=134|
20230508-13:25:49.179603000 : 8=FIXT.1.1|9=52|35=0|34=46|49=LAMB|52=20230508-13:25:49.179|56=XTRM|10=206|
20230508-13:25:49.304911000 : 8=FIXT.1.1|9=000052|35=0|49=XTRM|56=LAMB|34=45|52=20230508-13:25:49.243|10=133|
20230508-13:26:19.198835000 : 8=FIXT.1.1|9=52|35=0|34=47|49=LAMB|52=20230508-13:26:19.198|56=XTRM|10=206|
20230508-13:26:19.323601000 : 8=FIXT.1.1|9=000052|35=0|49=XTRM|56=LAMB|34=46|52=20230508-13:26:19.263|10=134|
20230508-13:26:49.059434000 : 8=FIXT.1.1|9=52|35=0|34=48|49=LAMB|52=20230508-13:26:49.058|56=XTRM|10=205|
20230508-13:26:49.184968000 : 8=FIXT.1.1|9=000052|35=0|49=XTRM|56=LAMB|34=47|52=20230508-13:26:49.123|10=133|
20230508-13:27:19.591228000 : 8=FIXT.1.1|9=52|35=0|34=49|49=LAMB|52=20230508-13:27:19.590|56=XTRM|10=205|
20230508-13:27:19.715848000 : 8=FIXT.1.1|9=000052|35=0|49=XTRM|56=LAMB|34=48|52=20230508-13:27:19.655|10=142|
20230508-13:27:49.144421000 : 8=FIXT.1.1|9=52|35=0|34=50|49=LAMB|52=20230508-13:27:49.143|56=XTRM|10=194|
20230508-13:27:49.269739000 : 8=FIXT.1.1|9=000052|35=0|49=XTRM|56=LAMB|34=49|52=20230508-13:27:49.208|10=140|
20230508-13:28:19.361211000 : 8=FIXT.1.1|9=52|35=0|34=51|49=LAMB|52=20230508-13:28:19.360|56=XTRM|10=194|
20230508-13:28:19.486413000 : 8=FIXT.1.1|9=000052|35=0|49=XTRM|56=LAMB|34=50|52=20230508-13:28:19.425|10=131|
20230508-13:28:49.425203000 : 8=FIXT.1.1|9=52|35=0|34=52|49=LAMB|52=20230508-13:28:49.424|56=XTRM|10=199|
20230508-13:28:49.551570000 : 8=FIXT.1.1|9=000052|35=0|49=XTRM|56=LAMB|34=51|52=20230508-13:28:49.490|10=137|
20230508-13:29:19.338850000 : 8=FIXT.1.1|9=52|35=0|34=53|49=LAMB|52=20230508-13:29:19.338|56=XTRM|10=202|
20230508-13:29:19.463927000 : 8=FIXT.1.1|9=000052|35=0|49=XTRM|56=LAMB|34=52|52=20230508-13:29:19.403|10=130|
20230508-13:29:49.103511000 : 8=FIXT.1.1|9=52|35=0|34=54|49=LAMB|52=20230508-13:29:49.103|56=XTRM|10=196|
20230508-13:29:49.227768000 : 8=FIXT.1.1|9=000052|35=0|49=XTRM|56=LAMB|34=53|52=20230508-13:29:49.167|10=141|
20230508-13:30:19.506777000 : 8=FIXT.1.1|9=52|35=0|34=55|49=LAMB|52=20230508-13:30:19.506|56=XTRM|10=193|
20230508-13:30:19.632216000 : 8=FIXT.1.1|9=000052|35=0|49=XTRM|56=LAMB|34=54|52=20230508-13:30:19.571|10=130|
20230508-13:30:49.743484000 : 8=FIXT.1.1|9=52|35=0|34=56|49=LAMB|52=20230508-13:30:49.743|56=XTRM|10=200|
20230508-13:30:49.868756000 : 8=FIXT.1.1|9=000052|35=0|49=XTRM|56=LAMB|34=55|52=20230508-13:30:49.808|10=137|
20230508-13:31:19.030207000 : 8=FIXT.1.1|9=52|35=0|34=57|49=LAMB|52=20230508-13:31:19.029|56=XTRM|10=196|
20230508-13:31:19.155632000 : 8=FIXT.1.1|9=000052|35=0|49=XTRM|56=LAMB|34=56|52=20230508-13:31:19.095|10=134|
20230508-13:31:49.225334000 : 8=FIXT.1.1|9=000052|35=0|49=XTRM|56=LAMB|34=57|52=20230508-13:31:49.164|10=135|
20230508-13:31:49.225958000 : 8=FIXT.1.1|9=52|35=0|34=58|49=LAMB|52=20230508-13:31:49.225|56=XTRM|10=198|
20230508-13:32:19.261841000 : 8=FIXT.1.1|9=000052|35=0|49=XTRM|56=LAMB|34=58|52=20230508-13:32:19.201|10=126|
20230508-13:32:19.262579000 : 8=FIXT.1.1|9=52|35=0|34=59|49=LAMB|52=20230508-13:32:19.262|56=XTRM|10=198|
20230508-13:32:49.301185000 : 8=FIXT.1.1|9=000052|35=0|49=XTRM|56=LAMB|34=59|52=20230508-13:32:49.241|10=134|
20230508-13:32:49.301973000 : 8=FIXT.1.1|9=52|35=0|34=60|49=LAMB|52=20230508-13:32:49.301|56=XTRM|10=187|
20230508-13:33:19.344399000 : 8=FIXT.1.1|9=000052|35=0|49=XTRM|56=LAMB|34=60|52=20230508-13:33:19.284|10=131|
20230508-13:33:19.345016000 : 8=FIXT.1.1|9=52|35=0|34=61|49=LAMB|52=20230508-13:33:19.344|56=XTRM|10=193|
20230508-13:33:49.290683000 : 8=FIXT.1.1|9=52|35=0|34=62|49=LAMB|52=20230508-13:33:49.290|56=XTRM|10=197|
20230508-13:33:49.384730000 : 8=FIXT.1.1|9=000052|35=0|49=XTRM|56=LAMB|34=61|52=20230508-13:33:49.324|10=130|
20230508-13:34:19.140221000 : 8=FIXT.1.1|9=52|35=0|34=63|49=LAMB|52=20230508-13:34:19.139|56=XTRM|10=198|
20230508-13:34:19.265133000 : 8=FIXT.1.1|9=000052|35=0|49=XTRM|56=LAMB|34=62|52=20230508-13:34:19.205|10=127|
20230508-13:34:49.465671000 : 8=FIXT.1.1|9=000052|35=0|49=XTRM|56=LAMB|34=63|52=20230508-13:34:49.405|10=133|
20230508-13:34:49.466369000 : 8=FIXT.1.1|9=52|35=0|34=64|49=LAMB|52=20230508-13:34:49.466|56=XTRM|10=205|
20230508-13:35:19.505181000 : 8=FIXT.1.1|9=000052|35=0|49=XTRM|56=LAMB|34=64|52=20230508-13:35:19.445|10=136|
20230508-13:35:19.505744000 : 8=FIXT.1.1|9=52|35=0|34=65|49=LAMB|52=20230508-13:35:19.505|56=XTRM|10=198|
20230508-13:35:49.508697000 : 8=FIXT.1.1|9=52|35=0|34=66|49=LAMB|52=20230508-13:35:49.508|56=XTRM|10=205|
20230508-13:35:49.543330000 : 8=FIXT.1.1|9=000052|35=0|49=XTRM|56=LAMB|34=65|52=20230508-13:35:49.483|10=142|
20230508-13:36:19.368676000 : 8=FIXT.1.1|9=52|35=0|34=67|49=LAMB|52=20230508-13:36:19.367|56=XTRM|10=207|
20230508-13:36:19.493898000 : 8=FIXT.1.1|9=000052|35=0|49=XTRM|56=LAMB|34=66|52=20230508-13:36:19.434|10=137|
20230508-13:36:49.144601000 : 8=FIXT.1.1|9=52|35=0|34=68|49=LAMB|52=20230508-13:36:49.144|56=XTRM|10=204|
20230508-13:36:49.270206000 : 8=FIXT.1.1|9=000052|35=0|49=XTRM|56=LAMB|34=67|52=20230508-13:36:49.210|10=133|
20230508-13:37:19.475773000 : 8=FIXT.1.1|9=52|35=0|34=69|49=LAMB|52=20230508-13:37:19.475|56=XTRM|10=210|
20230508-13:37:19.602017000 : 8=FIXT.1.1|9=000052|35=0|49=XTRM|56=LAMB|34=68|52=20230508-13:37:19.542|10=140|
20230508-13:37:49.607472000 : 8=FIXT.1.1|9=52|35=0|34=70|49=LAMB|52=20230508-13:37:49.606|56=XTRM|10=201|
20230508-13:37:49.686341000 : 8=FIXT.1.1|9=000052|35=0|49=XTRM|56=LAMB|34=69|52=20230508-13:37:49.626|10=147|
20230508-13:38:19.510634000 : 8=FIXT.1.1|9=52|35=0|34=71|49=LAMB|52=20230508-13:38:19.509|56=XTRM|10=202|
20230508-13:38:19.634891000 : 8=FIXT.1.1|9=000052|35=0|49=XTRM|56=LAMB|34=70|52=20230508-13:38:19.575|10=140|
20230508-13:38:49.262231000 : 8=FIXT.1.1|9=52|35=0|34=72|49=LAMB|52=20230508-13:38:49.261|56=XTRM|10=201|
20230508-13:38:49.388724000 : 8=FIXT.1.1|9=000052|35=0|49=XTRM|56=LAMB|34=71|52=20230508-13:38:49.329|10=141|
20230508-13:39:19.544877000 : 8=FIXT.1.1|9=52|35=0|34=73|49=LAMB|52=20230508-13:39:19.544|56=XTRM|10=204|
20230508-13:39:19.670026000 : 8=FIXT.1.1|9=000052|35=0|49=XTRM|56=LAMB|34=72|52=20230508-13:39:19.610|10=133|
20230508-13:39:49.623014000 : 8=FIXT.1.1|9=52|35=0|34=74|49=LAMB|52=20230508-13:39:49.622|56=XTRM|10=205|
20230508-13:39:49.750708000 : 8=FIXT.1.1|9=000052|35=0|49=XTRM|56=LAMB|34=73|52=20230508-13:39:49.691|10=146|
20230508-13:40:19.511165000 : 8=FIXT.1.1|9=52|35=0|34=75|49=LAMB|52=20230508-13:40:19.510|56=XTRM|10=191|
20230508-13:40:19.636648000 : 8=FIXT.1.1|9=000052|35=0|49=XTRM|56=LAMB|34=74|52=20230508-13:40:19.576|10=138|
20230508-13:40:49.210893000 : 8=FIXT.1.1|9=52|35=0|34=76|49=LAMB|52=20230508-13:40:49.210|56=XTRM|10=192|
20230508-13:40:49.336268000 : 8=FIXT.1.1|9=000052|35=0|49=XTRM|56=LAMB|34=75|52=20230508-13:40:49.276|10=139|
20230508-13:41:19.412583000 : 8=FIXT.1.1|9=52|35=0|34=77|49=LAMB|52=20230508-13:41:19.411|56=XTRM|10=194|
20230508-13:41:19.538320000 : 8=FIXT.1.1|9=000052|35=0|49=XTRM|56=LAMB|34=76|52=20230508-13:41:19.478|10=142|
20230508-13:41:49.407918000 : 8=FIXT.1.1|9=52|35=0|34=78|49=LAMB|52=20230508-13:41:49.407|56=XTRM|10=203|
20230508-13:41:49.533193000 : 8=FIXT.1.1|9=000052|35=0|49=XTRM|56=LAMB|34=77|52=20230508-13:41:49.473|10=141|
20230508-13:42:19.213148000 : 8=FIXT.1.1|9=52|35=0|34=79|49=LAMB|52=20230508-13:42:19.212|56=XTRM|10=196|
20230508-13:42:19.338863000 : 8=FIXT.1.1|9=000052|35=0|49=XTRM|56=LAMB|34=78|52=20230508-13:42:19.279|10=144|
20230508-13:42:49.511560000 : 8=FIXT.1.1|9=52|35=0|34=80|49=LAMB|52=20230508-13:42:49.510|56=XTRM|10=192|
20230508-13:42:49.637101000 : 8=FIXT.1.1|9=000052|35=0|49=XTRM|56=LAMB|34=79|52=20230508-13:42:49.577|10=149|
20230508-13:43:19.586836000 : 8=FIXT.1.1|9=52|35=0|34=81|49=LAMB|52=20230508-13:43:19.586|56=XTRM|10=204|
20230508-13:43:19.712434000 : 8=FIXT.1.1|9=000052|35=0|49=XTRM|56=LAMB|34=80|52=20230508-13:43:19.652|10=133|
20230508-13:43:49.436130000 : 8=FIXT.1.1|9=52|35=0|34=82|49=LAMB|52=20230508-13:43:49.434|56=XTRM|10=200|
20230508-13:43:49.561614000 : 8=FIXT.1.1|9=000052|35=0|49=XTRM|56=LAMB|34=81|52=20230508-13:43:49.501|10=130|
20230508-13:44:19.080939000 : 8=FIXT.1.1|9=52|35=0|34=83|49=LAMB|52=20230508-13:44:19.080|56=XTRM|10=196|
20230508-13:44:19.206176000 : 8=FIXT.1.1|9=000052|35=0|49=XTRM|56=LAMB|34=82|52=20230508-13:44:19.146|10=134|
20230508-13:44:49.193215000 : 8=FIXT.1.1|9=52|35=0|34=84|49=LAMB|52=20230508-13:44:49.192|56=XTRM|10=204|
20230508-13:44:49.220600000 : 8=FIXT.1.1|9=000052|35=0|49=XTRM|56=LAMB|34=83|52=20230508-13:44:49.161|10=135|
20230508-13:45:19.257295000 : 8=FIXT.1.1|9=000052|35=0|49=XTRM|56=LAMB|34=84|52=20230508-13:45:19.197|10=143|
20230508-13:45:19.257980000 : 8=FIXT.1.1|9=52|35=0|34=85|49=LAMB|52=20230508-13:45:19.257|56=XTRM|10=205|
20230508-13:45:49.294806000 : 8=FIXT.1.1|9=000052|35=0|49=XTRM|56=LAMB|34=85|52=20230508-13:45:49.235|10=140|
20230508-13:45:49.295737000 : 8=FIXT.1.1|9=52|35=0|34=86|49=LAMB|52=20230508-13:45:49.295|56=XTRM|10=211|
20230508-13:46:19.282382000 : 8=FIXT.1.1|9=52|35=0|34=87|49=LAMB|52=20230508-13:46:19.281|56=XTRM|10=205|
20230508-13:46:19.333010000 : 8=FIXT.1.1|9=000052|35=0|49=XTRM|56=LAMB|34=86|52=20230508-13:46:19.273|10=141|
20230508-13:46:49.085986000 : 8=FIXT.1.1|9=52|35=0|34=88|49=LAMB|52=20230508-13:46:49.085|56=XTRM|10=211|
20230508-13:46:49.211288000 : 8=FIXT.1.1|9=000052|35=0|49=XTRM|56=LAMB|34=87|52=20230508-13:46:49.151|10=140|
20230508-13:47:19.373388000 : 8=FIXT.1.1|9=52|35=0|34=89|49=LAMB|52=20230508-13:47:19.372|56=XTRM|10=209|
20230508-13:47:19.408601000 : 8=FIXT.1.1|9=000052|35=0|49=XTRM|56=LAMB|34=88|52=20230508-13:47:19.348|10=147|
20230508-13:47:49.337375000 : 8=FIXT.1.1|9=52|35=0|34=90|49=LAMB|52=20230508-13:47:49.336|56=XTRM|10=204|
20230508-13:47:49.448040000 : 8=FIXT.1.1|9=000052|35=0|49=XTRM|56=LAMB|34=89|52=20230508-13:47:49.388|10=155|
20230508-13:48:19.149981000 : 8=FIXT.1.1|9=52|35=0|34=91|49=LAMB|52=20230508-13:48:19.149|56=XTRM|10=205|
20230508-13:48:19.274534000 : 8=FIXT.1.1|9=000052|35=0|49=XTRM|56=LAMB|34=90|52=20230508-13:48:19.214|10=133|
20230508-13:48:49.374190000 : 8=FIXT.1.1|9=52|35=0|34=92|49=LAMB|52=20230508-13:48:49.373|56=XTRM|10=208|
20230508-13:48:49.499525000 : 8=FIXT.1.1|9=000052|35=0|49=XTRM|56=LAMB|34=91|52=20230508-13:48:49.439|10=146|
20230508-13:49:19.365556000 : 8=FIXT.1.1|9=52|35=0|34=93|49=LAMB|52=20230508-13:49:19.364|56=XTRM|10=207|
20230508-13:49:19.490710000 : 8=FIXT.1.1|9=000052|35=0|49=XTRM|56=LAMB|34=92|52=20230508-13:49:19.430|10=136|
20230508-13:49:49.121744000 : 8=FIXT.1.1|9=52|35=0|34=94|49=LAMB|52=20230508-13:49:49.121|56=XTRM|10=202|
20230508-13:49:49.246962000 : 8=FIXT.1.1|9=000052|35=0|49=XTRM|56=LAMB|34=93|52=20230508-13:49:49.186|10=148|
20230508-13:50:19.245506000 : 8=FIXT.1.1|9=52|35=0|34=95|49=LAMB|52=20230508-13:50:19.244|56=XTRM|10=198|
20230508-13:50:19.370817000 : 8=FIXT.1.1|9=000052|35=0|49=XTRM|56=LAMB|34=94|52=20230508-13:50:19.310|10=127|
20230508-13:50:49.122478000 : 8=FIXT.1.1|9=52|35=0|34=96|49=LAMB|52=20230508-13:50:49.122|56=XTRM|10=197|
20230508-13:50:49.248982000 : 8=FIXT.1.1|9=000052|35=0|49=XTRM|56=LAMB|34=95|52=20230508-13:50:49.188|10=144|
20230508-13:51:19.352565000 : 8=FIXT.1.1|9=52|35=0|34=97|49=LAMB|52=20230508-13:51:19.351|56=XTRM|10=200|
20230508-13:51:19.477984000 : 8=FIXT.1.1|9=000052|35=0|49=XTRM|56=LAMB|34=96|52=20230508-13:51:19.417|10=138|
20230508-13:51:49.319933000 : 8=FIXT.1.1|9=52|35=0|34=98|49=LAMB|52=20230508-13:51:49.319|56=XTRM|10=208|
20230508-13:51:49.444908000 : 8=FIXT.1.1|9=000052|35=0|49=XTRM|56=LAMB|34=97|52=20230508-13:51:49.384|10=145|
20230508-13:52:19.024051000 : 8=FIXT.1.1|9=52|35=0|34=99|49=LAMB|52=20230508-13:52:19.023|56=XTRM|10=199|
20230508-13:52:19.149269000 : 8=FIXT.1.1|9=000052|35=0|49=XTRM|56=LAMB|34=98|52=20230508-13:52:19.088|10=145|
20230508-13:52:49.045877000 : 8=FIXT.1.1|9=53|35=0|34=100|49=LAMB|52=20230508-13:52:49.045|56=XTRM|10=238|
20230508-13:52:49.171301000 : 8=FIXT.1.1|9=000052|35=0|49=XTRM|56=LAMB|34=99|52=20230508-13:52:49.110|10=135|
20230508-13:53:19.377031000 : 8=FIXT.1.1|9=53|35=0|34=101|49=LAMB|52=20230508-13:53:19.376|56=XTRM|10=244|
20230508-13:53:19.502218000 : 8=FIXT.1.1|9=000053|35=0|49=XTRM|56=LAMB|34=100|52=20230508-13:53:19.441|10=172|
20230508-13:53:49.428509000 : 8=FIXT.1.1|9=53|35=0|34=102|49=LAMB|52=20230508-13:53:49.428|56=XTRM|10=246|
20230508-13:53:49.556449000 : 8=FIXT.1.1|9=000053|35=0|49=XTRM|56=LAMB|34=101|52=20230508-13:53:49.495|10=185|
20230508-13:54:19.186975000 : 8=FIXT.1.1|9=53|35=0|34=103|49=LAMB|52=20230508-13:54:19.185|56=XTRM|10=245|
20230508-13:54:19.312526000 : 8=FIXT.1.1|9=000053|35=0|49=XTRM|56=LAMB|34=102|52=20230508-13:54:19.251|10=174|
20230508-13:54:49.198291000 : 8=FIXT.1.1|9=53|35=0|34=104|49=LAMB|52=20230508-13:54:49.197|56=XTRM|10=252|
20230508-13:54:49.323485000 : 8=FIXT.1.1|9=000053|35=0|49=XTRM|56=LAMB|34=103|52=20230508-13:54:49.262|10=180|
20230508-13:55:19.493840000 : 8=FIXT.1.1|9=53|35=0|34=105|49=LAMB|52=20230508-13:55:19.493|56=XTRM|10=250|
20230508-13:55:19.619003000 : 8=FIXT.1.1|9=000053|35=0|49=XTRM|56=LAMB|34=104|52=20230508-13:55:19.558|10=187|
20230508-13:55:49.487794000 : 8=FIXT.1.1|9=53|35=0|34=106|49=LAMB|52=20230508-13:55:49.487|56=XTRM|10=001|
20230508-13:55:49.613439000 : 8=FIXT.1.1|9=000053|35=0|49=XTRM|56=LAMB|34=105|52=20230508-13:55:49.552|10=185|
20230508-13:56:19.173220000 : 8=FIXT.1.1|9=53|35=0|34=107|49=LAMB|52=20230508-13:56:19.172|56=XTRM|10=247|
20230508-13:56:19.298195000 : 8=FIXT.1.1|9=000053|35=0|49=XTRM|56=LAMB|34=106|52=20230508-13:56:19.237|10=184|
20230508-13:56:49.077464000 : 8=FIXT.1.1|9=53|35=0|34=108|49=LAMB|52=20230508-13:56:49.076|56=XTRM|10=254|
20230508-13:56:49.202419000 : 8=FIXT.1.1|9=000053|35=0|49=XTRM|56=LAMB|34=107|52=20230508-13:56:49.141|10=182|
20230508-13:57:19.191919000 : 8=FIXT.1.1|9=53|35=0|34=109|49=LAMB|52=20230508-13:57:19.191|56=XTRM|10=251|
20230508-13:57:19.207543000 : 8=FIXT.1.1|9=000053|35=0|49=XTRM|56=LAMB|34=108|52=20230508-13:57:19.146|10=186|
20230508-13:57:49.246499000 : 8=FIXT.1.1|9=000053|35=0|49=XTRM|56=LAMB|34=109|52=20230508-13:57:49.185|10=193|
20230508-13:57:49.247296000 : 8=FIXT.1.1|9=53|35=0|34=110|49=LAMB|52=20230508-13:57:49.247|56=XTRM|10=248|
20230508-13:58:19.125141000 : 8=FIXT.1.1|9=53|35=0|34=111|49=LAMB|52=20230508-13:58:19.124|56=XTRM|10=241|
20230508-13:58:19.250026000 : 8=FIXT.1.1|9=000053|35=0|49=XTRM|56=LAMB|34=110|52=20230508-13:58:19.188|10=186|
20230508-13:58:49.322714000 : 8=FIXT.1.1|9=53|35=0|34=112|49=LAMB|52=20230508-13:58:49.322|56=XTRM|10=245|
20230508-13:58:49.324322000 : 8=FIXT.1.1|9=000053|35=0|49=XTRM|56=LAMB|34=111|52=20230508-13:58:49.262|10=183|
20230508-13:59:19.083240000 : 8=FIXT.1.1|9=53|35=0|34=113|49=LAMB|52=20230508-13:59:19.082|56=XTRM|10=247|
20230508-13:59:19.208471000 : 8=FIXT.1.1|9=000053|35=0|49=XTRM|56=LAMB|34=112|52=20230508-13:59:19.147|10=184|
20230508-13:59:49.139926000 : 8=FIXT.1.1|9=53|35=0|34=114|49=LAMB|52=20230508-13:59:49.138|56=XTRM|10=253|
20230508-13:59:49.265174000 : 8=FIXT.1.1|9=000053|35=0|49=XTRM|56=LAMB|34=113|52=20230508-13:59:49.203|10=181|
20230508-14:00:19.344826000 : 8=FIXT.1.1|9=53|35=0|34=115|49=LAMB|52=20230508-14:00:19.344|56=XTRM|10=237|
20230508-14:00:19.443901000 : 8=FIXT.1.1|9=000053|35=0|49=XTRM|56=LAMB|34=114|52=20230508-14:00:19.381|10=173|
20230508-14:00:49.139182000 : 8=FIXT.1.1|9=53|35=0|34=116|49=LAMB|52=20230508-14:00:49.138|56=XTRM|10=242|
20230508-14:00:49.264275000 : 8=FIXT.1.1|9=000053|35=0|49=XTRM|56=LAMB|34=115|52=20230508-14:00:49.202|10=169|
20230508-14:01:19.058971000 : 8=FIXT.1.1|9=53|35=0|34=117|49=LAMB|52=20230508-14:01:19.058|56=XTRM|10=242|
20230508-14:01:19.185168000 : 8=FIXT.1.1|9=000053|35=0|49=XTRM|56=LAMB|34=116|52=20230508-14:01:19.122|10=169|
20230508-14:01:49.071897000 : 8=FIXT.1.1|9=53|35=0|34=118|49=LAMB|52=20230508-14:01:49.071|56=XTRM|10=241|
20230508-14:01:49.197541000 : 8=FIXT.1.1|9=000053|35=0|49=XTRM|56=LAMB|34=117|52=20230508-14:01:49.135|10=177|
20230508-14:02:19.169405000 : 8=FIXT.1.1|9=53|35=0|34=119|49=LAMB|52=20230508-14:02:19.168|56=XTRM|10=247|
20230508-14:02:19.294892000 : 8=FIXT.1.1|9=000053|35=0|49=XTRM|56=LAMB|34=118|52=20230508-14:02:19.233|10=175|
20230508-14:02:49.318925000 : 8=FIXT.1.1|9=53|35=0|34=120|49=LAMB|52=20230508-14:02:49.318|56=XTRM|10=239|
20230508-14:02:49.444337000 : 8=FIXT.1.1|9=000053|35=0|49=XTRM|56=LAMB|34=119|52=20230508-14:02:49.382|10=184|
20230508-14:03:19.024917000 : 8=FIXT.1.1|9=53|35=0|34=121|49=LAMB|52=20230508-14:03:19.024|56=XTRM|10=232|
20230508-14:03:19.150360000 : 8=FIXT.1.1|9=000053|35=0|49=XTRM|56=LAMB|34=120|52=20230508-14:03:19.088|10=177|
20230508-14:03:49.217392000 : 8=FIXT.1.1|9=53|35=0|34=122|49=LAMB|52=20230508-14:03:49.216|56=XTRM|10=239|
20230508-14:03:49.342745000 : 8=FIXT.1.1|9=000053|35=0|49=XTRM|56=LAMB|34=121|52=20230508-14:03:49.280|10=175|
20230508-14:04:19.424251000 : 8=FIXT.1.1|9=53|35=0|34=123|49=LAMB|52=20230508-14:04:19.423|56=XTRM|10=238|
20230508-14:04:19.549648000 : 8=FIXT.1.1|9=000053|35=0|49=XTRM|56=LAMB|34=122|52=20230508-14:04:19.487|10=183|
20230508-14:04:49.177424000 : 8=FIXT.1.1|9=53|35=0|34=124|49=LAMB|52=20230508-14:04:49.176|56=XTRM|10=247|
20230508-14:04:49.304542000 : 8=FIXT.1.1|9=000053|35=0|49=XTRM|56=LAMB|34=123|52=20230508-14:04:49.241|10=175|
20230508-14:05:19.337977000 : 8=FIXT.1.1|9=53|35=0|34=125|49=LAMB|52=20230508-14:05:19.337|56=XTRM|10=245|
20230508-14:05:19.465692000 : 8=FIXT.1.1|9=000053|35=0|49=XTRM|56=LAMB|34=124|52=20230508-14:05:19.402|10=173|
20230508-14:05:49.016397000 : 8=FIXT.1.1|9=53|35=0|34=126|49=LAMB|52=20230508-14:05:49.015|56=XTRM|10=242|
20230508-14:05:49.141907000 : 8=FIXT.1.1|9=000053|35=0|49=XTRM|56=LAMB|34=125|52=20230508-14:05:49.078|10=186|
20230508-14:06:19.054111000 : 8=FIXT.1.1|9=53|35=0|34=127|49=LAMB|52=20230508-14:06:19.053|56=XTRM|10=243|
20230508-14:06:19.179820000 : 8=FIXT.1.1|9=000053|35=0|49=XTRM|56=LAMB|34=126|52=20230508-14:06:19.116|10=178|
20230508-14:06:49.396306000 : 8=FIXT.1.1|9=53|35=0|34=128|49=LAMB|52=20230508-14:06:49.395|56=XTRM|10=000|
20230508-14:06:49.523021000 : 8=FIXT.1.1|9=000053|35=0|49=XTRM|56=LAMB|34=127|52=20230508-14:06:49.459|10=192|
20230508-14:07:19.218252000 : 8=FIXT.1.1|9=53|35=0|34=129|49=LAMB|52=20230508-14:07:19.217|56=XTRM|10=248|
20230508-14:07:19.345587000 : 8=FIXT.1.1|9=000053|35=0|49=XTRM|56=LAMB|34=128|52=20230508-14:07:19.282|10=185|
20230508-14:07:49.310616000 : 8=FIXT.1.1|9=53|35=0|34=130|49=LAMB|52=20230508-14:07:49.310|56=XTRM|10=237|
20230508-14:07:49.434824000 : 8=FIXT.1.1|9=000053|35=0|49=XTRM|56=LAMB|34=129|52=20230508-14:07:49.371|10=188|
20230508-14:08:19.229212000 : 8=FIXT.1.1|9=53|35=0|34=131|49=LAMB|52=20230508-14:08:19.228|56=XTRM|10=244|
20230508-14:08:19.356557000 : 8=FIXT.1.1|9=000053|35=0|49=XTRM|56=LAMB|34=130|52=20230508-14:08:19.293|10=181|
20230508-14:08:49.335832000 : 8=FIXT.1.1|9=53|35=0|34=132|49=LAMB|52=20230508-14:08:49.335|56=XTRM|10=247|
20230508-14:08:49.461459000 : 8=FIXT.1.1|9=000053|35=0|49=XTRM|56=LAMB|34=131|52=20230508-14:08:49.397|10=190|
20230508-14:09:19.101742000 : 8=FIXT.1.1|9=53|35=0|34=133|49=LAMB|52=20230508-14:09:19.101|56=XTRM|10=237|
20230508-14:09:19.227568000 : 8=FIXT.1.1|9=000053|35=0|49=XTRM|56=LAMB|34=132|52=20230508-14:09:19.163|10=180|
20230508-14:09:49.324911000 : 8=FIXT.1.1|9=53|35=0|34=134|49=LAMB|52=20230508-14:09:49.324|56=XTRM|10=248|
20230508-14:09:49.450101000 : 8=FIXT.1.1|9=000053|35=0|49=XTRM|56=LAMB|34=133|52=20230508-14:09:49.386|10=191|
20230508-14:10:19.255195000 : 8=FIXT.1.1|9=53|35=0|34=135|49=LAMB|52=20230508-14:10:19.254|56=XTRM|10=240|
20230508-14:10:19.380750000 : 8=FIXT.1.1|9=000053|35=0|49=XTRM|56=LAMB|34=134|52=20230508-14:10:19.316|10=174|
20230508-14:10:49.245369000 : 8=FIXT.1.1|9=53|35=0|34=136|49=LAMB|52=20230508-14:10:49.244|56=XTRM|10=243|
20230508-14:10:49.370783000 : 8=FIXT.1.1|9=000053|35=0|49=XTRM|56=LAMB|34=135|52=20230508-14:10:49.306|10=177|
20230508-14:11:19.226580000 : 8=FIXT.1.1|9=53|35=0|34=137|49=LAMB|52=20230508-14:11:19.226|56=XTRM|10=242|
20230508-14:11:19.351779000 : 8=FIXT.1.1|9=000053|35=0|49=XTRM|56=LAMB|34=136|52=20230508-14:11:19.287|10=184|
20230508-14:11:49.156517000 : 8=FIXT.1.1|9=53|35=0|34=138|49=LAMB|52=20230508-14:11:49.155|56=XTRM|10=247|
20230508-14:11:49.281701000 : 8=FIXT.1.1|9=000053|35=0|49=XTRM|56=LAMB|34=137|52=20230508-14:11:49.217|10=181|
20230508-14:12:19.006490000 : 8=FIXT.1.1|9=53|35=0|34=139|49=LAMB|52=20230508-14:12:19.005|56=XTRM|10=240|
20230508-14:12:19.131853000 : 8=FIXT.1.1|9=000053|35=0|49=XTRM|56=LAMB|34=138|52=20230508-14:12:19.067|10=183|
20230508-14:12:49.025290000 : 8=FIXT.1.1|9=53|35=0|34=140|49=LAMB|52=20230508-14:12:49.024|56=XTRM|10=236|
20230508-14:12:49.152776000 : 8=FIXT.1.1|9=000053|35=0|49=XTRM|56=LAMB|34=139|52=20230508-14:12:49.088|10=190|
20230508-14:13:19.160157000 : 8=FIXT.1.1|9=53|35=0|34=141|49=LAMB|52=20230508-14:13:19.159|56=XTRM|10=244|
20230508-14:13:19.285805000 : 8=FIXT.1.1|9=000053|35=0|49=XTRM|56=LAMB|34=140|52=20230508-14:13:19.220|10=168|
20230508-14:13:49.277102000 : 8=FIXT.1.1|9=53|35=0|34=142|49=LAMB|52=20230508-14:13:49.276|56=XTRM|10=248|
20230508-14:13:49.402549000 : 8=FIXT.1.1|9=000053|35=0|49=XTRM|56=LAMB|34=141|52=20230508-14:13:49.337|10=181|
20230508-14:14:19.012977000 : 8=FIXT.1.1|9=53|35=0|34=143|49=LAMB|52=20230508-14:14:19.012|56=XTRM|10=235|
20230508-14:14:19.139320000 : 8=FIXT.1.1|9=000053|35=0|49=XTRM|56=LAMB|34=142|52=20230508-14:14:19.074|10=178|
20230508-14:14:49.203303000 : 8=FIXT.1.1|9=53|35=0|34=144|49=LAMB|52=20230508-14:14:49.202|56=XTRM|10=240|
20230508-14:14:49.328272000 : 8=FIXT.1.1|9=000053|35=0|49=XTRM|56=LAMB|34=143|52=20230508-14:14:49.263|10=182|
20230508-14:15:19.117982000 : 8=FIXT.1.1|9=53|35=0|34=145|49=LAMB|52=20230508-14:15:19.117|56=XTRM|10=244|
20230508-14:15:19.243457000 : 8=FIXT.1.1|9=000053|35=0|49=XTRM|56=LAMB|34=144|52=20230508-14:15:19.178|10=186|
20230508-14:15:49.203113000 : 8=FIXT.1.1|9=53|35=0|34=146|49=LAMB|52=20230508-14:15:49.202|56=XTRM|10=243|
20230508-14:15:49.331411000 : 8=FIXT.1.1|9=000053|35=0|49=XTRM|56=LAMB|34=145|52=20230508-14:15:49.266|10=188|
20230508-14:16:19.061830000 : 8=FIXT.1.1|9=53|35=0|34=147|49=LAMB|52=20230508-14:16:19.061|56=XTRM|10=245|
20230508-14:16:19.187165000 : 8=FIXT.1.1|9=000053|35=0|49=XTRM|56=LAMB|34=146|52=20230508-14:16:19.122|10=178|
20230508-14:16:49.067477000 : 8=FIXT.1.1|9=53|35=0|34=148|49=LAMB|52=20230508-14:16:49.067|56=XTRM|10=255|
20230508-14:16:49.192287000 : 8=FIXT.1.1|9=000053|35=0|49=XTRM|56=LAMB|34=147|52=20230508-14:16:49.127|10=187|
20230508-14:17:19.155474000 : 8=FIXT.1.1|9=53|35=0|34=149|49=LAMB|52=20230508-14:17:19.155|56=XTRM|10=252|
20230508-14:17:19.280901000 : 8=FIXT.1.1|9=000053|35=0|49=XTRM|56=LAMB|34=148|52=20230508-14:17:19.215|10=184|
20230508-14:17:49.208422000 : 8=FIXT.1.1|9=53|35=0|34=150|49=LAMB|52=20230508-14:17:49.207|56=XTRM|10=245|
20230508-14:17:49.333431000 : 8=FIXT.1.1|9=000053|35=0|49=XTRM|56=LAMB|34=149|52=20230508-14:17:49.268|10=196|
20230508-14:18:19.147507000 : 8=FIXT.1.1|9=53|35=0|34=151|49=LAMB|52=20230508-14:18:19.147|56=XTRM|10=247|
20230508-14:18:19.275380000 : 8=FIXT.1.1|9=000053|35=0|49=XTRM|56=LAMB|34=150|52=20230508-14:18:19.209|10=181|
20230508-14:18:49.038410000 : 8=FIXT.1.1|9=53|35=0|34=152|49=LAMB|52=20230508-14:18:49.037|56=XTRM|10=249|
20230508-14:18:49.163704000 : 8=FIXT.1.1|9=000053|35=0|49=XTRM|56=LAMB|34=151|52=20230508-14:18:49.098|10=191|
20230508-14:19:19.017834000 : 8=FIXT.1.1|9=53|35=0|34=153|49=LAMB|52=20230508-14:19:19.017|56=XTRM|10=246|
20230508-14:19:19.142953000 : 8=FIXT.1.1|9=000053|35=0|49=XTRM|56=LAMB|34=152|52=20230508-14:19:19.077|10=187|
20230508-14:19:49.084555000 : 8=FIXT.1.1|9=53|35=0|34=154|49=LAMB|52=20230508-14:19:49.084|56=XTRM|10=254|
20230508-14:19:49.209780000 : 8=FIXT.1.1|9=000053|35=0|49=XTRM|56=LAMB|34=153|52=20230508-14:19:49.144|10=186|
20230508-14:20:19.094210000 : 8=FIXT.1.1|9=53|35=0|34=155|49=LAMB|52=20230508-14:20:19.093|56=XTRM|10=244|
20230508-14:20:19.221649000 : 8=FIXT.1.1|9=000053|35=0|49=XTRM|56=LAMB|34=154|52=20230508-14:20:19.155|10=178|
20230508-14:20:49.052113000 : 8=FIXT.1.1|9=53|35=0|34=156|49=LAMB|52=20230508-14:20:49.051|56=XTRM|10=242|
20230508-14:20:49.177684000 : 8=FIXT.1.1|9=000053|35=0|49=XTRM|56=LAMB|34=155|52=20230508-14:20:49.111|10=174|
20230508-14:21:19.002840000 : 8=FIXT.1.1|9=53|35=0|34=157|49=LAMB|52=20230508-14:21:19.002|56=XTRM|10=237|
20230508-14:21:19.130067000 : 8=FIXT.1.1|9=000053|35=0|49=XTRM|56=LAMB|34=156|52=20230508-14:21:19.064|10=180|
20230508-14:21:49.005622000 : 8=FIXT.1.1|9=53|35=0|34=158|49=LAMB|52=20230508-14:21:49.005|56=XTRM|10=244|
20230508-14:21:49.133507000 : 8=FIXT.1.1|9=000053|35=0|49=XTRM|56=LAMB|34=157|52=20230508-14:21:49.067|10=187|
20230508-14:22:19.256295000 : 8=FIXT.1.1|9=000053|35=0|49=XTRM|56=LAMB|34=158|52=20230508-14:22:19.190|10=183|
20230508-14:22:19.257689000 : 8=FIXT.1.1|9=53|35=0|34=159|49=LAMB|52=20230508-14:22:19.257|56=XTRM|10=252|
20230508-14:22:49.193855000 : 8=FIXT.1.1|9=53|35=0|34=160|49=LAMB|52=20230508-14:22:49.193|56=XTRM|10=246|
20230508-14:22:49.296863000 : 8=FIXT.1.1|9=000053|35=0|49=XTRM|56=LAMB|34=159|52=20230508-14:22:49.230|10=182|
20230508-14:23:19.125617000 : 8=FIXT.1.1|9=53|35=0|34=161|49=LAMB|52=20230508-14:23:19.125|56=XTRM|10=240|
20230508-14:23:19.250450000 : 8=FIXT.1.1|9=000053|35=0|49=XTRM|56=LAMB|34=160|52=20230508-14:23:19.184|10=180|
20230508-14:23:49.374852000 : 8=FIXT.1.1|9=000053|35=0|49=XTRM|56=LAMB|34=161|52=20230508-14:23:49.308|10=182|
20230508-14:23:49.375910000 : 8=FIXT.1.1|9=53|35=0|34=162|49=LAMB|52=20230508-14:23:49.375|56=XTRM|10=251|
20230508-14:24:19.414043000 : 8=FIXT.1.1|9=000053|35=0|49=XTRM|56=LAMB|34=162|52=20230508-14:24:19.347|10=184|
20230508-14:24:19.414847000 : 8=FIXT.1.1|9=53|35=0|34=163|49=LAMB|52=20230508-14:24:19.414|56=XTRM|10=244|
20230508-14:24:49.452303000 : 8=FIXT.1.1|9=000053|35=0|49=XTRM|56=LAMB|34=163|52=20230508-14:24:49.385|10=190|
20230508-14:24:49.452968000 : 8=FIXT.1.1|9=53|35=0|34=164|49=LAMB|52=20230508-14:24:49.452|56=XTRM|10=250|
20230508-14:25:19.490631000 : 8=FIXT.1.1|9=000053|35=0|49=XTRM|56=LAMB|34=164|52=20230508-14:25:19.423|10=182|
20230508-14:25:19.491464000 : 8=FIXT.1.1|9=53|35=0|34=165|49=LAMB|52=20230508-14:25:19.491|56=XTRM|10=252|
20230508-14:25:49.530046000 : 8=FIXT.1.1|9=000053|35=0|49=XTRM|56=LAMB|34=165|52=20230508-14:25:49.463|10=190|
20230508-14:25:49.531212000 : 8=FIXT.1.1|9=53|35=0|34=166|49=LAMB|52=20230508-14:25:49.530|56=XTRM|10=250|
20230508-14:26:19.706326000 : 8=FIXT.1.1|9=53|35=0|34=167|49=LAMB|52=20230508-14:26:19.705|56=XTRM|10=253|
20230508-14:26:19.831696000 : 8=FIXT.1.1|9=000053|35=0|49=XTRM|56=LAMB|34=166|52=20230508-14:26:19.765|10=194|
20230508-14:26:49.884614000 : 8=FIXT.1.1|9=53|35=0|34=168|49=LAMB|52=20230508-14:26:49.883|56=XTRM|10=008|
20230508-14:26:50.009951000 : 8=FIXT.1.1|9=000053|35=0|49=XTRM|56=LAMB|34=167|52=20230508-14:26:49.943|10=196|
20230508-14:27:19.943409000 : 8=FIXT.1.1|9=53|35=0|34=169|49=LAMB|52=20230508-14:27:19.942|56=XTRM|10=003|
20230508-14:27:20.068614000 : 8=FIXT.1.1|9=000053|35=0|49=XTRM|56=LAMB|34=168|52=20230508-14:27:20.001|10=172|
20230508-14:27:49.888812000 : 8=FIXT.1.1|9=53|35=0|34=170|49=LAMB|52=20230508-14:27:49.888|56=XTRM|10=007|
20230508-14:27:50.358357000 : 8=FIXT.1.1|9=000053|35=0|49=XTRM|56=LAMB|34=169|52=20230508-14:27:49.948|10=204|
20230508-14:28:19.113485000 : 8=FIXT.1.1|9=53|35=0|34=171|49=LAMB|52=20230508-14:28:19.112|56=XTRM|10=242|
20230508-14:28:19.238775000 : 8=FIXT.1.1|9=000053|35=0|49=XTRM|56=LAMB|34=170|52=20230508-14:28:19.171|10=182|
20230508-14:28:49.336012000 : 8=FIXT.1.1|9=000053|35=0|49=XTRM|56=LAMB|34=171|52=20230508-14:28:49.269|10=194|
20230508-14:28:49.336707000 : 8=FIXT.1.1|9=53|35=0|34=172|49=LAMB|52=20230508-14:28:49.336|56=XTRM|10=254|
20230508-14:29:19.376528000 : 8=FIXT.1.1|9=000053|35=0|49=XTRM|56=LAMB|34=172|52=20230508-14:29:19.309|10=188|
20230508-14:29:19.377328000 : 8=FIXT.1.1|9=53|35=0|34=173|49=LAMB|52=20230508-14:29:19.377|56=XTRM|10=002|
20230508-14:29:49.418453000 : 8=FIXT.1.1|9=000053|35=0|49=XTRM|56=LAMB|34=173|52=20230508-14:29:49.351|10=189|
20230508-14:29:49.419031000 : 8=FIXT.1.1|9=53|35=0|34=174|49=LAMB|52=20230508-14:29:49.418|56=XTRM|10=002|
20230508-14:30:19.458360000 : 8=FIXT.1.1|9=000053|35=0|49=XTRM|56=LAMB|34=174|52=20230508-14:30:19.391|10=183|
20230508-14:30:19.458983000 : 8=FIXT.1.1|9=53|35=0|34=175|49=LAMB|52=20230508-14:30:19.458|56=XTRM|10=252|
20230508-14:30:49.497948000 : 8=FIXT.1.1|9=000053|35=0|49=XTRM|56=LAMB|34=175|52=20230508-14:30:49.430|10=181|
20230508-14:30:49.498727000 : 8=FIXT.1.1|9=53|35=0|34=176|49=LAMB|52=20230508-14:30:49.498|56=XTRM|10=004|
20230508-14:31:19.499040000 : 8=FIXT.1.1|9=53|35=0|34=177|49=LAMB|52=20230508-14:31:19.498|56=XTRM|10=003|
20230508-14:31:19.536799000 : 8=FIXT.1.1|9=000053|35=0|49=XTRM|56=LAMB|34=176|52=20230508-14:31:19.469|10=192|
20230508-14:31:49.407325000 : 8=FIXT.1.1|9=53|35=0|34=178|49=LAMB|52=20230508-14:31:49.406|56=XTRM|10=252|
20230508-14:31:49.532523000 : 8=FIXT.1.1|9=000053|35=0|49=XTRM|56=LAMB|34=177|52=20230508-14:31:49.465|10=192|
20230508-14:32:19.279595000 : 8=FIXT.1.1|9=53|35=0|34=179|49=LAMB|52=20230508-14:32:19.278|56=XTRM|10=002|
20230508-14:32:19.404267000 : 8=FIXT.1.1|9=000053|35=0|49=XTRM|56=LAMB|34=178|52=20230508-14:32:19.336|10=188|
20230508-14:32:49.022997000 : 8=FIXT.1.1|9=53|35=0|34=180|49=LAMB|52=20230508-14:32:49.022|56=XTRM|10=240|
20230508-14:32:49.149798000 : 8=FIXT.1.1|9=000053|35=0|49=XTRM|56=LAMB|34=179|52=20230508-14:32:49.082|10=190|
20230508-14:33:19.571788000 : 8=FIXT.1.1|9=53|35=0|34=181|49=LAMB|52=20230508-14:33:19.571|56=XTRM|10=248|
20230508-14:33:19.696121000 : 8=FIXT.1.1|9=000053|35=0|49=XTRM|56=LAMB|34=180|52=20230508-14:33:19.628|10=186|
20230508-14:33:49.077994000 : 8=FIXT.1.1|9=53|35=0|34=182|49=LAMB|52=20230508-14:33:49.077|56=XTRM|10=253|
20230508-14:33:49.203395000 : 8=FIXT.1.1|9=000053|35=0|49=XTRM|56=LAMB|34=181|52=20230508-14:33:49.135|10=183|
20230508-14:34:19.377593000 : 8=FIXT.1.1|9=53|35=0|34=183|49=LAMB|52=20230508-14:34:19.377|56=XTRM|10=255|
20230508-14:34:19.502736000 : 8=FIXT.1.1|9=000053|35=0|49=XTRM|56=LAMB|34=182|52=20230508-14:34:19.434|10=184|
20230508-14:34:49.553838000 : 8=FIXT.1.1|9=53|35=0|34=184|49=LAMB|52=20230508-14:34:49.553|56=XTRM|10=255|
20230508-14:34:49.679375000 : 8=FIXT.1.1|9=000053|35=0|49=XTRM|56=LAMB|34=183|52=20230508-14:34:49.611|10=185|
20230508-14:35:19.598792000 : 8=FIXT.1.1|9=53|35=0|34=185|49=LAMB|52=20230508-14:35:19.598|56=XTRM|10=007|
20230508-14:35:19.723990000 : 8=FIXT.1.1|9=000053|35=0|49=XTRM|56=LAMB|34=184|52=20230508-14:35:19.656|10=193|
20230508-14:35:49.516644000 : 8=FIXT.1.1|9=53|35=0|34=186|49=LAMB|52=20230508-14:35:49.515|56=XTRM|10=000|
20230508-14:35:49.642356000 : 8=FIXT.1.1|9=000053|35=0|49=XTRM|56=LAMB|34=185|52=20230508-14:35:49.573|10=195|
20230508-14:36:19.305402000 : 8=FIXT.1.1|9=53|35=0|34=187|49=LAMB|52=20230508-14:36:19.304|56=XTRM|10=251|
20230508-14:36:19.430975000 : 8=FIXT.1.1|9=000053|35=0|49=XTRM|56=LAMB|34=186|52=20230508-14:36:19.362|10=190|
20230508-14:36:49.855228000 : 8=FIXT.1.1|9=53|35=0|34=188|49=LAMB|52=20230508-14:36:49.854|56=XTRM|10=009|
20230508-14:36:49.979505000 : 8=FIXT.1.1|9=000053|35=0|49=XTRM|56=LAMB|34=187|52=20230508-14:36:49.910|10=193|
20230508-14:37:19.375496000 : 8=FIXT.1.1|9=53|35=0|34=189|49=LAMB|52=20230508-14:37:19.375|56=XTRM|10=006|
20230508-14:37:19.500870000 : 8=FIXT.1.1|9=000053|35=0|49=XTRM|56=LAMB|34=188|52=20230508-14:37:19.432|10=191|
20230508-14:37:49.660297000 : 8=FIXT.1.1|9=53|35=0|34=190|49=LAMB|52=20230508-14:37:49.659|56=XTRM|10=006|
20230508-14:37:49.785382000 : 8=FIXT.1.1|9=000053|35=0|49=XTRM|56=LAMB|34=189|52=20230508-14:37:49.717|10=201|
20230508-14:38:19.810812000 : 8=FIXT.1.1|9=53|35=0|34=191|49=LAMB|52=20230508-14:38:19.810|56=XTRM|10=250|
20230508-14:38:19.936030000 : 8=FIXT.1.1|9=000053|35=0|49=XTRM|56=LAMB|34=190|52=20230508-14:38:19.867|10=197|
20230508-14:38:49.826332000 : 8=FIXT.1.1|9=53|35=0|34=192|49=LAMB|52=20230508-14:38:49.825|56=XTRM|10=004|
20230508-14:38:49.951824000 : 8=FIXT.1.1|9=000053|35=0|49=XTRM|56=LAMB|34=191|52=20230508-14:38:49.883|10=199|
20230508-14:39:19.690684000 : 8=FIXT.1.1|9=53|35=0|34=193|49=LAMB|52=20230508-14:39:19.690|56=XTRM|10=003|
20230508-14:39:19.816429000 : 8=FIXT.1.1|9=000053|35=0|49=XTRM|56=LAMB|34=192|52=20230508-14:39:19.747|10=197|
20230508-14:39:49.418639000 : 8=FIXT.1.1|9=53|35=0|34=194|49=LAMB|52=20230508-14:39:49.418|56=XTRM|10=005|
20230508-14:39:49.543982000 : 8=FIXT.1.1|9=000053|35=0|49=XTRM|56=LAMB|34=193|52=20230508-14:39:49.475|10=199|
20230508-14:40:19.004638000 : 8=FIXT.1.1|9=53|35=0|34=195|49=LAMB|52=20230508-14:40:19.004|56=XTRM|10=242|
20230508-14:40:19.130117000 : 8=FIXT.1.1|9=000053|35=0|49=XTRM|56=LAMB|34=194|52=20230508-14:40:19.060|10=179|
20230508-14:40:49.303111000 : 8=FIXT.1.1|9=000053|35=0|49=XTRM|56=LAMB|34=195|52=20230508-14:40:49.233|10=185|
20230508-14:40:49.303922000 : 8=FIXT.1.1|9=53|35=0|34=196|49=LAMB|52=20230508-14:40:49.303|56=XTRM|10=248|
20230508-14:41:19.342419000 : 8=FIXT.1.1|9=000053|35=0|49=XTRM|56=LAMB|34=196|52=20230508-14:41:19.273|10=188|
20230508-14:41:19.343031000 : 8=FIXT.1.1|9=53|35=0|34=197|49=LAMB|52=20230508-14:41:19.342|56=XTRM|10=250|
20230508-14:41:49.269960000 : 8=FIXT.1.1|9=53|35=0|34=198|49=LAMB|52=20230508-14:41:49.269|56=XTRM|10=006|
20230508-14:41:49.382918000 : 8=FIXT.1.1|9=000053|35=0|49=XTRM|56=LAMB|34=197|52=20230508-14:41:49.313|10=187|
20230508-14:42:19.177337000 : 8=FIXT.1.1|9=53|35=0|34=199|49=LAMB|52=20230508-14:42:19.176|56=XTRM|10=002|
20230508-14:42:19.302376000 : 8=FIXT.1.1|9=000053|35=0|49=XTRM|56=LAMB|34=198|52=20230508-14:42:19.232|10=186|
20230508-14:42:49.462456000 : 8=FIXT.1.1|9=000053|35=0|49=XTRM|56=LAMB|34=199|52=20230508-14:42:49.392|10=197|
20230508-14:42:49.463194000 : 8=FIXT.1.1|9=53|35=0|34=200|49=LAMB|52=20230508-14:42:49.462|56=XTRM|10=242|
20230508-14:43:19.502101000 : 8=FIXT.1.1|9=000053|35=0|49=XTRM|56=LAMB|34=200|52=20230508-14:43:19.431|10=172|
20230508-14:43:19.502922000 : 8=FIXT.1.1|9=53|35=0|34=201|49=LAMB|52=20230508-14:43:19.502|56=XTRM|10=236|
20230508-14:43:49.540596000 : 8=FIXT.1.1|9=000053|35=0|49=XTRM|56=LAMB|34=201|52=20230508-14:43:49.470|10=179|
20230508-14:43:49.541182000 : 8=FIXT.1.1|9=53|35=0|34=202|49=LAMB|52=20230508-14:43:49.541|56=XTRM|10=243|
20230508-14:44:19.578083000 : 8=FIXT.1.1|9=000053|35=0|49=XTRM|56=LAMB|34=202|52=20230508-14:44:19.507|10=179|
20230508-14:44:19.578866000 : 8=FIXT.1.1|9=53|35=0|34=203|49=LAMB|52=20230508-14:44:19.578|56=XTRM|10=252|
20230508-14:44:49.543771000 : 8=FIXT.1.1|9=53|35=0|34=204|49=LAMB|52=20230508-14:44:49.543|56=XTRM|10=248|
20230508-14:44:49.613871000 : 8=FIXT.1.1|9=000053|35=0|49=XTRM|56=LAMB|34=203|52=20230508-14:44:49.543|10=183|
20230508-14:45:19.426839000 : 8=FIXT.1.1|9=53|35=0|34=205|49=LAMB|52=20230508-14:45:19.426|56=XTRM|10=247|
20230508-14:45:19.552841000 : 8=FIXT.1.1|9=000053|35=0|49=XTRM|56=LAMB|34=204|52=20230508-14:45:19.482|10=184|
20230508-14:45:49.219835000 : 8=FIXT.1.1|9=53|35=0|34=206|49=LAMB|52=20230508-14:45:49.219|56=XTRM|10=251|
20230508-14:45:49.347455000 : 8=FIXT.1.1|9=000053|35=0|49=XTRM|56=LAMB|34=205|52=20230508-14:45:49.276|10=189|
20230508-14:46:19.683650000 : 8=FIXT.1.1|9=53|35=0|34=207|49=LAMB|52=20230508-14:46:19.683|56=XTRM|10=255|
20230508-14:46:19.732495000 : 8=FIXT.1.1|9=000053|35=0|49=XTRM|56=LAMB|34=206|52=20230508-14:46:19.661|10=186|
20230508-14:46:49.104077000 : 8=FIXT.1.1|9=53|35=0|34=208|49=LAMB|52=20230508-14:46:49.103|56=XTRM|10=246|
20230508-14:46:49.228875000 : 8=FIXT.1.1|9=000053|35=0|49=XTRM|56=LAMB|34=207|52=20230508-14:46:49.158|10=191|
20230508-14:47:19.269122000 : 8=FIXT.1.1|9=53|35=0|34=209|49=LAMB|52=20230508-14:47:19.268|56=XTRM|10=001|
20230508-14:47:19.394588000 : 8=FIXT.1.1|9=000053|35=0|49=XTRM|56=LAMB|34=208|52=20230508-14:47:19.323|10=184|
20230508-14:47:49.276715000 : 8=FIXT.1.1|9=53|35=0|34=210|49=LAMB|52=20230508-14:47:49.276|56=XTRM|10=251|
20230508-14:47:49.401956000 : 8=FIXT.1.1|9=000053|35=0|49=XTRM|56=LAMB|34=209|52=20230508-14:47:49.330|10=186|
20230508-14:48:19.128169000 : 8=FIXT.1.1|9=53|35=0|34=211|49=LAMB|52=20230508-14:48:19.127|56=XTRM|10=245|
20230508-14:48:19.253167000 : 8=FIXT.1.1|9=000053|35=0|49=XTRM|56=LAMB|34=210|52=20230508-14:48:19.181|10=180|
20230508-14:48:49.622309000 : 8=FIXT.1.1|9=53|35=0|34=212|49=LAMB|52=20230508-14:48:49.621|56=XTRM|10=248|
20230508-14:48:49.747794000 : 8=FIXT.1.1|9=000053|35=0|49=XTRM|56=LAMB|34=211|52=20230508-14:48:49.675|10=192|
20230508-14:49:19.164471000 : 8=FIXT.1.1|9=53|35=0|34=213|49=LAMB|52=20230508-14:49:19.163|56=XTRM|10=248|
20230508-14:49:19.289728000 : 8=FIXT.1.1|9=000053|35=0|49=XTRM|56=LAMB|34=212|52=20230508-14:49:19.217|10=183|
20230508-14:49:49.349094000 : 8=FIXT.1.1|9=53|35=0|34=214|49=LAMB|52=20230508-14:49:49.348|56=XTRM|10=001|
20230508-14:49:49.474312000 : 8=FIXT.1.1|9=000053|35=0|49=XTRM|56=LAMB|34=213|52=20230508-14:49:49.402|10=183|
20230508-14:50:19.380513000 : 8=FIXT.1.1|9=53|35=0|34=215|49=LAMB|52=20230508-14:50:19.380|56=XTRM|10=243|
20230508-14:50:19.505831000 : 8=FIXT.1.1|9=000053|35=0|49=XTRM|56=LAMB|34=214|52=20230508-14:50:19.433|10=177|
20230508-14:50:49.251211000 : 8=FIXT.1.1|9=53|35=0|34=216|49=LAMB|52=20230508-14:50:49.250|56=XTRM|10=243|
20230508-14:50:49.376408000 : 8=FIXT.1.1|9=000053|35=0|49=XTRM|56=LAMB|34=215|52=20230508-14:50:49.304|10=178|
20230508-14:51:19.746126000 : 8=FIXT.1.1|9=53|35=0|34=217|49=LAMB|52=20230508-14:51:19.745|56=XTRM|10=251|
20230508-14:51:19.871214000 : 8=FIXT.1.1|9=000053|35=0|49=XTRM|56=LAMB|34=216|52=20230508-14:51:19.798|10=194|
20230508-14:51:49.304124000 : 8=FIXT.1.1|9=53|35=0|34=218|49=LAMB|52=20230508-14:51:49.303|56=XTRM|10=245|
20230508-14:51:49.429300000 : 8=FIXT.1.1|9=000053|35=0|49=XTRM|56=LAMB|34=217|52=20230508-14:51:49.356|10=188|
20230508-14:52:19.466636000 : 8=FIXT.1.1|9=53|35=0|34=219|49=LAMB|52=20230508-14:52:19.466|56=XTRM|10=254|
20230508-14:52:19.591934000 : 8=FIXT.1.1|9=000053|35=0|49=XTRM|56=LAMB|34=218|52=20230508-14:52:19.519|10=188|
20230508-14:52:49.453265000 : 8=FIXT.1.1|9=53|35=0|34=220|49=LAMB|52=20230508-14:52:49.452|56=XTRM|10=244|
20230508-14:52:49.578407000 : 8=FIXT.1.1|9=000053|35=0|49=XTRM|56=LAMB|34=219|52=20230508-14:52:49.505|10=187|
20230508-14:53:19.267880000 : 8=FIXT.1.1|9=53|35=0|34=221|49=LAMB|52=20230508-14:53:19.267|56=XTRM|10=247|
20230508-14:53:19.393051000 : 8=FIXT.1.1|9=000053|35=0|49=XTRM|56=LAMB|34=220|52=20230508-14:53:19.320|10=172|
20230508-14:53:49.677084000 : 8=FIXT.1.1|9=53|35=0|34=222|49=LAMB|52=20230508-14:53:49.676|56=XTRM|10=255|
20230508-14:53:49.802491000 : 8=FIXT.1.1|9=000053|35=0|49=XTRM|56=LAMB|34=221|52=20230508-14:53:49.729|10=189|
20230508-14:54:19.163518000 : 8=FIXT.1.1|9=53|35=0|34=223|49=LAMB|52=20230508-14:54:19.162|56=XTRM|10=244|
20230508-14:54:19.289157000 : 8=FIXT.1.1|9=000053|35=0|49=XTRM|56=LAMB|34=222|52=20230508-14:54:19.215|10=178|
20230508-14:54:49.235303000 : 8=FIXT.1.1|9=53|35=0|34=224|49=LAMB|52=20230508-14:54:49.234|56=XTRM|10=248|
20230508-14:54:49.360760000 : 8=FIXT.1.1|9=000053|35=0|49=XTRM|56=LAMB|34=223|52=20230508-14:54:49.287|10=191|
20230508-14:55:19.140995000 : 8=FIXT.1.1|9=53|35=0|34=225|49=LAMB|52=20230508-14:55:19.140|56=XTRM|10=243|
20230508-14:55:19.266229000 : 8=FIXT.1.1|9=000053|35=0|49=XTRM|56=LAMB|34=224|52=20230508-14:55:19.192|10=185|
20230508-14:55:49.484489000 : 8=FIXT.1.1|9=000053|35=0|49=XTRM|56=LAMB|34=225|52=20230508-14:55:49.410|10=182|
20230508-14:55:49.485150000 : 8=FIXT.1.1|9=53|35=0|34=226|49=LAMB|52=20230508-14:55:49.484|56=XTRM|10=002|
20230508-14:56:19.522631000 : 8=FIXT.1.1|9=000053|35=0|49=XTRM|56=LAMB|34=226|52=20230508-14:56:19.449|10=193|
20230508-14:56:19.523297000 : 8=FIXT.1.1|9=53|35=0|34=227|49=LAMB|52=20230508-14:56:19.523|56=XTRM|10=251|
20230508-14:56:49.553140000 : 8=FIXT.1.1|9=53|35=0|34=228|49=LAMB|52=20230508-14:56:49.552|56=XTRM|10=001|
20230508-14:56:49.562604000 : 8=FIXT.1.1|9=000053|35=0|49=XTRM|56=LAMB|34=227|52=20230508-14:56:49.489|10=201|
20230508-14:57:19.420483000 : 8=FIXT.1.1|9=53|35=0|34=229|49=LAMB|52=20230508-14:57:19.419|56=XTRM|10=002|
20230508-14:57:19.545515000 : 8=FIXT.1.1|9=000053|35=0|49=XTRM|56=LAMB|34=228|52=20230508-14:57:19.472|10=192|
20230508-14:57:49.216253000 : 8=FIXT.1.1|9=53|35=0|34=230|49=LAMB|52=20230508-14:57:49.215|56=XTRM|10=247|
20230508-14:57:49.341355000 : 8=FIXT.1.1|9=000053|35=0|49=XTRM|56=LAMB|34=229|52=20230508-14:57:49.267|10=198|
20230508-14:58:19.550366000 : 8=FIXT.1.1|9=53|35=0|34=231|49=LAMB|52=20230508-14:58:19.549|56=XTRM|10=000|
20230508-14:58:19.675614000 : 8=FIXT.1.1|9=000053|35=0|49=XTRM|56=LAMB|34=230|52=20230508-14:58:19.601|10=180|
20230508-14:58:49.687380000 : 8=FIXT.1.1|9=53|35=0|34=232|49=LAMB|52=20230508-14:58:49.686|56=XTRM|10=006|
20230508-14:58:49.725944000 : 8=FIXT.1.1|9=000053|35=0|49=XTRM|56=LAMB|34=231|52=20230508-14:58:49.652|10=190|
20230508-14:59:19.543457000 : 8=FIXT.1.1|9=53|35=0|34=233|49=LAMB|52=20230508-14:59:19.543|56=XTRM|10=253|
20230508-14:59:19.671042000 : 8=FIXT.1.1|9=000053|35=0|49=XTRM|56=LAMB|34=232|52=20230508-14:59:19.597|10=197|
20230508-14:59:49.298685000 : 8=FIXT.1.1|9=53|35=0|34=234|49=LAMB|52=20230508-14:59:49.298|56=XTRM|10=008|
20230508-14:59:49.423837000 : 8=FIXT.1.1|9=000053|35=0|49=XTRM|56=LAMB|34=233|52=20230508-14:59:49.349|10=196|
20230508-15:00:19.553057000 : 8=FIXT.1.1|9=53|35=0|34=235|49=LAMB|52=20230508-15:00:19.552|56=XTRM|10=242|
20230508-15:00:19.678519000 : 8=FIXT.1.1|9=000053|35=0|49=XTRM|56=LAMB|34=234|52=20230508-15:00:19.604|10=175|
20230508-15:00:49.595514000 : 8=FIXT.1.1|9=53|35=0|34=236|49=LAMB|52=20230508-15:00:49.594|56=XTRM|10=252|
20230508-15:00:49.722931000 : 8=FIXT.1.1|9=000053|35=0|49=XTRM|56=LAMB|34=235|52=20230508-15:00:49.649|10=188|
20230508-15:01:19.431169000 : 8=FIXT.1.1|9=53|35=0|34=237|49=LAMB|52=20230508-15:01:19.430|56=XTRM|10=240|
20230508-15:01:19.910792000 : 8=FIXT.1.1|9=000053|35=0|49=XTRM|56=LAMB|34=236|52=20230508-15:01:19.837|10=186|
20230508-15:01:49.431609000 : 8=FIXT.1.1|9=53|35=0|34=238|49=LAMB|52=20230508-15:01:49.431|56=XTRM|10=245|
20230508-15:01:49.558508000 : 8=FIXT.1.1|9=000053|35=0|49=XTRM|56=LAMB|34=237|52=20230508-15:01:49.484|10=188|
20230508-15:02:19.561722000 : 8=FIXT.1.1|9=53|35=0|34=239|49=LAMB|52=20230508-15:02:19.561|56=XTRM|10=248|
20230508-15:02:19.687145000 : 8=FIXT.1.1|9=000053|35=0|49=XTRM|56=LAMB|34=238|52=20230508-15:02:19.612|10=180|
20230508-15:02:49.475115000 : 8=FIXT.1.1|9=53|35=0|34=240|49=LAMB|52=20230508-15:02:49.474|56=XTRM|10=246|
20230508-15:02:49.600678000 : 8=FIXT.1.1|9=000053|35=0|49=XTRM|56=LAMB|34=239|52=20230508-15:02:49.526|10=188|
20230508-15:03:19.173653000 : 8=FIXT.1.1|9=53|35=0|34=241|49=LAMB|52=20230508-15:03:19.173|56=XTRM|10=241|
20230508-15:03:19.299035000 : 8=FIXT.1.1|9=000053|35=0|49=XTRM|56=LAMB|34=240|52=20230508-15:03:19.224|10=173|
20230508-15:03:49.321700000 : 8=FIXT.1.1|9=53|35=0|34=242|49=LAMB|52=20230508-15:03:49.321|56=XTRM|10=240|
20230508-15:03:49.447247000 : 8=FIXT.1.1|9=000053|35=0|49=XTRM|56=LAMB|34=241|52=20230508-15:03:49.372|10=181|
20230508-15:04:19.255169000 : 8=FIXT.1.1|9=53|35=0|34=243|49=LAMB|52=20230508-15:04:19.254|56=XTRM|10=244|
20230508-15:04:19.380626000 : 8=FIXT.1.1|9=000053|35=0|49=XTRM|56=LAMB|34=242|52=20230508-15:04:19.306|10=177|
20230508-15:04:49.636366000 : 8=FIXT.1.1|9=53|35=0|34=244|49=LAMB|52=20230508-15:04:49.635|56=XTRM|10=251|
20230508-15:04:49.761661000 : 8=FIXT.1.1|9=000053|35=0|49=XTRM|56=LAMB|34=243|52=20230508-15:04:49.687|10=193|
20230508-15:05:19.131071000 : 8=FIXT.1.1|9=53|35=0|34=245|49=LAMB|52=20230508-15:05:19.130|56=XTRM|10=240|
20230508-15:05:19.256721000 : 8=FIXT.1.1|9=000053|35=0|49=XTRM|56=LAMB|34=244|52=20230508-15:05:19.181|10=181|
20230508-15:05:49.054908000 : 8=FIXT.1.1|9=53|35=0|34=246|49=LAMB|52=20230508-15:05:49.054|56=XTRM|10=249|
20230508-15:05:49.180415000 : 8=FIXT.1.1|9=000053|35=0|49=XTRM|56=LAMB|34=245|52=20230508-15:05:49.105|10=181|
20230508-15:06:19.393374000 : 8=FIXT.1.1|9=53|35=0|34=247|49=LAMB|52=20230508-15:06:19.392|56=XTRM|10=253|
20230508-15:06:19.404498000 : 8=FIXT.1.1|9=000053|35=0|49=XTRM|56=LAMB|34=246|52=20230508-15:06:19.329|10=188|
20230508-15:06:49.378649000 : 8=FIXT.1.1|9=53|35=0|34=248|49=LAMB|52=20230508-15:06:49.377|56=XTRM|10=004|
20230508-15:06:49.441010000 : 8=FIXT.1.1|9=000053|35=0|49=XTRM|56=LAMB|34=247|52=20230508-15:06:49.366|10=193|
20230508-15:07:19.164948000 : 8=FIXT.1.1|9=53|35=0|34=249|49=LAMB|52=20230508-15:07:19.164|56=XTRM|10=253|
20230508-15:07:19.291119000 : 8=FIXT.1.1|9=000053|35=0|49=XTRM|56=LAMB|34=248|52=20230508-15:07:19.216|10=186|
20230508-15:07:49.405546000 : 8=FIXT.1.1|9=53|35=0|34=250|49=LAMB|52=20230508-15:07:49.404|56=XTRM|10=245|
20230508-15:07:49.513085000 : 8=FIXT.1.1|9=000053|35=0|49=XTRM|56=LAMB|34=249|52=20230508-15:07:49.438|10=196|
20230508-15:08:19.377670000 : 8=FIXT.1.1|9=53|35=0|34=251|49=LAMB|52=20230508-15:08:19.377|56=XTRM|10=253|
20230508-15:08:19.551479000 : 8=FIXT.1.1|9=000053|35=0|49=XTRM|56=LAMB|34=250|52=20230508-15:08:19.476|10=188|
20230508-15:08:49.161332000 : 8=FIXT.1.1|9=53|35=0|34=252|49=LAMB|52=20230508-15:08:49.160|56=XTRM|10=247|
20230508-15:08:49.288454000 : 8=FIXT.1.1|9=000053|35=0|49=XTRM|56=LAMB|34=251|52=20230508-15:08:49.213|10=181|
20230508-15:09:19.182878000 : 8=FIXT.1.1|9=53|35=0|34=253|49=LAMB|52=20230508-15:09:19.182|56=XTRM|10=250|
20230508-15:09:19.310877000 : 8=FIXT.1.1|9=000053|35=0|49=XTRM|56=LAMB|34=252|52=20230508-15:09:19.236|10=185|
20230508-15:09:49.533219000 : 8=FIXT.1.1|9=53|35=0|34=254|49=LAMB|52=20230508-15:09:49.532|56=XTRM|10=253|
20230508-15:09:49.659057000 : 8=FIXT.1.1|9=000053|35=0|49=XTRM|56=LAMB|34=253|52=20230508-15:09:49.584|10=195|
20230508-15:10:19.020919000 : 8=FIXT.1.1|9=53|35=0|34=255|49=LAMB|52=20230508-15:10:19.020|56=XTRM|10=235|
20230508-15:10:19.146106000 : 8=FIXT.1.1|9=000053|35=0|49=XTRM|56=LAMB|34=254|52=20230508-15:10:19.071|10=176|
20230508-15:10:49.428124000 : 8=FIXT.1.1|9=53|35=0|34=256|49=LAMB|52=20230508-15:10:49.427|56=XTRM|10=250|
20230508-15:10:49.553408000 : 8=FIXT.1.1|9=000053|35=0|49=XTRM|56=LAMB|34=255|52=20230508-15:10:49.478|10=191|
20230508-15:11:19.554158000 : 8=FIXT.1.1|9=53|35=0|34=257|49=LAMB|52=20230508-15:11:19.553|56=XTRM|10=249|
20230508-15:11:19.679475000 : 8=FIXT.1.1|9=000053|35=0|49=XTRM|56=LAMB|34=256|52=20230508-15:11:19.604|10=181|
20230508-15:11:49.426757000 : 8=FIXT.1.1|9=53|35=0|34=258|49=LAMB|52=20230508-15:11:49.426|56=XTRM|10=252|
20230508-15:11:49.552165000 : 8=FIXT.1.1|9=000053|35=0|49=XTRM|56=LAMB|34=257|52=20230508-15:11:49.476|10=192|
20230508-15:12:19.037226000 : 8=FIXT.1.1|9=53|35=0|34=259|49=LAMB|52=20230508-15:12:19.036|56=XTRM|10=248|
20230508-15:12:19.162371000 : 8=FIXT.1.1|9=000053|35=0|49=XTRM|56=LAMB|34=258|52=20230508-15:12:19.087|10=189|
20230508-15:12:49.537468000 : 8=FIXT.1.1|9=53|35=0|34=260|49=LAMB|52=20230508-15:12:49.536|56=XTRM|10=248|
20230508-15:12:49.663255000 : 8=FIXT.1.1|9=000053|35=0|49=XTRM|56=LAMB|34=259|52=20230508-15:12:49.588|10=199|
20230508-15:13:19.183276000 : 8=FIXT.1.1|9=53|35=0|34=261|49=LAMB|52=20230508-15:13:19.182|56=XTRM|10=244|
20230508-15:13:19.308500000 : 8=FIXT.1.1|9=000053|35=0|49=XTRM|56=LAMB|34=260|52=20230508-15:13:19.233|10=176|
20230508-15:13:49.124330000 : 8=FIXT.1.1|9=53|35=0|34=262|49=LAMB|52=20230508-15:13:49.123|56=XTRM|10=243|
20230508-15:13:49.251850000 : 8=FIXT.1.1|9=000053|35=0|49=XTRM|56=LAMB|34=261|52=20230508-15:13:49.176|10=186|
20230508-15:14:19.345493000 : 8=FIXT.1.1|9=53|35=0|34=263|49=LAMB|52=20230508-15:14:19.345|56=XTRM|10=248|
20230508-15:14:19.470860000 : 8=FIXT.1.1|9=000053|35=0|49=XTRM|56=LAMB|34=262|52=20230508-15:14:19.395|10=188|
20230508-15:14:49.278190000 : 8=FIXT.1.1|9=53|35=0|34=264|49=LAMB|52=20230508-15:14:49.277|56=XTRM|10=000|
20230508-15:14:49.403554000 : 8=FIXT.1.1|9=000053|35=0|49=XTRM|56=LAMB|34=263|52=20230508-15:14:49.328|10=188|
20230508-15:15:19.450274000 : 8=FIXT.1.1|9=53|35=0|34=265|49=LAMB|52=20230508-15:15:19.449|56=XTRM|10=000|
20230508-15:15:19.577859000 : 8=FIXT.1.1|9=000053|35=0|49=XTRM|56=LAMB|34=264|52=20230508-15:15:19.502|10=181|
20230508-15:15:49.302762000 : 8=FIXT.1.1|9=53|35=0|34=266|49=LAMB|52=20230508-15:15:49.302|56=XTRM|10=248|
20230508-15:15:49.427736000 : 8=FIXT.1.1|9=000053|35=0|49=XTRM|56=LAMB|34=265|52=20230508-15:15:49.352|10=188|
20230508-15:16:19.366073000 : 8=FIXT.1.1|9=53|35=0|34=267|49=LAMB|52=20230508-15:16:19.365|56=XTRM|10=000|
20230508-15:16:19.493203000 : 8=FIXT.1.1|9=000053|35=0|49=XTRM|56=LAMB|34=266|52=20230508-15:16:19.417|10=189|
20230508-15:16:49.115846000 : 8=FIXT.1.1|9=53|35=0|34=268|49=LAMB|52=20230508-15:16:49.115|56=XTRM|10=253|
20230508-15:16:49.241448000 : 8=FIXT.1.1|9=000053|35=0|49=XTRM|56=LAMB|34=267|52=20230508-15:16:49.165|10=193|
20230508-15:17:19.076563000 : 8=FIXT.1.1|9=53|35=0|34=269|49=LAMB|52=20230508-15:17:19.076|56=XTRM|10=002|
20230508-15:17:19.201154000 : 8=FIXT.1.1|9=000053|35=0|49=XTRM|56=LAMB|34=268|52=20230508-15:17:19.125|10=188|
20230508-15:17:49.223754000 : 8=FIXT.1.1|9=53|35=0|34=270|49=LAMB|52=20230508-15:17:49.223|56=XTRM|10=247|
20230508-15:17:49.281525000 : 8=FIXT.1.1|9=000053|35=0|49=XTRM|56=LAMB|34=269|52=20230508-15:17:49.205|10=191|
20230508-15:18:19.420963000 : 8=FIXT.1.1|9=000053|35=0|49=XTRM|56=LAMB|34=270|52=20230508-15:18:19.345|10=186|
20230508-15:18:19.421579000 : 8=FIXT.1.1|9=53|35=0|34=271|49=LAMB|52=20230508-15:18:19.421|56=XTRM|10=246|
20230508-15:18:49.327076000 : 8=FIXT.1.1|9=53|35=0|34=272|49=LAMB|52=20230508-15:18:49.326|56=XTRM|10=254|
20230508-15:18:49.453746000 : 8=FIXT.1.1|9=000053|35=0|49=XTRM|56=LAMB|34=271|52=20230508-15:18:49.378|10=196|
20230508-15:19:19.018808000 : 8=FIXT.1.1|9=53|35=0|34=273|49=LAMB|52=20230508-15:19:19.018|56=XTRM|10=251|
20230508-15:19:19.144286000 : 8=FIXT.1.1|9=000053|35=0|49=XTRM|56=LAMB|34=272|52=20230508-15:19:19.068|10=191|
20230508-15:19:49.350593000 : 8=FIXT.1.1|9=53|35=0|34=274|49=LAMB|52=20230508-15:19:49.350|56=XTRM|10=254|
20230508-15:19:49.474724000 : 8=FIXT.1.1|9=000053|35=0|49=XTRM|56=LAMB|34=273|52=20230508-15:19:49.399|10=202|
20230508-15:20:19.327794000 : 8=FIXT.1.1|9=53|35=0|34=275|49=LAMB|52=20230508-15:20:19.327|56=XTRM|10=248|
20230508-15:20:19.452970000 : 8=FIXT.1.1|9=000053|35=0|49=XTRM|56=LAMB|34=274|52=20230508-15:20:19.376|10=187|
20230508-15:20:49.407648000 : 8=FIXT.1.1|9=53|35=0|34=276|49=LAMB|52=20230508-15:20:49.407|56=XTRM|10=251|
20230508-15:20:49.532656000 : 8=FIXT.1.1|9=000053|35=0|49=XTRM|56=LAMB|34=275|52=20230508-15:20:49.456|10=190|
20230508-15:21:19.119388000 : 8=FIXT.1.1|9=53|35=0|34=277|49=LAMB|52=20230508-15:21:19.118|56=XTRM|10=249|
20230508-15:21:19.244645000 : 8=FIXT.1.1|9=000053|35=0|49=XTRM|56=LAMB|34=276|52=20230508-15:21:19.168|10=189|
20230508-15:21:49.395696000 : 8=FIXT.1.1|9=53|35=0|34=278|49=LAMB|52=20230508-15:21:49.395|56=XTRM|10=004|
20230508-15:21:49.521160000 : 8=FIXT.1.1|9=000053|35=0|49=XTRM|56=LAMB|34=277|52=20230508-15:21:49.444|10=190|
20230508-15:22:19.291777000 : 8=FIXT.1.1|9=53|35=0|34=279|49=LAMB|52=20230508-15:22:19.291|56=XTRM|10=254|
20230508-15:22:19.417042000 : 8=FIXT.1.1|9=000053|35=0|49=XTRM|56=LAMB|34=278|52=20230508-15:22:19.340|10=184|
20230508-15:22:49.252921000 : 8=FIXT.1.1|9=53|35=0|34=280|49=LAMB|52=20230508-15:22:49.252|56=XTRM|10=246|
20230508-15:22:49.378458000 : 8=FIXT.1.1|9=000053|35=0|49=XTRM|56=LAMB|34=279|52=20230508-15:22:49.302|10=186|
20230508-15:23:19.261135000 : 8=FIXT.1.1|9=53|35=0|34=281|49=LAMB|52=20230508-15:23:19.260|56=XTRM|10=244|
20230508-15:23:19.387749000 : 8=FIXT.1.1|9=000053|35=0|49=XTRM|56=LAMB|34=280|52=20230508-15:23:19.310|10=175|
20230508-15:23:49.288601000 : 8=FIXT.1.1|9=53|35=0|34=282|49=LAMB|52=20230508-15:23:49.288|56=XTRM|10=002|
20230508-15:23:49.414416000 : 8=FIXT.1.1|9=000053|35=0|49=XTRM|56=LAMB|34=281|52=20230508-15:23:49.337|10=188|
20230508-15:24:19.307627000 : 8=FIXT.1.1|9=53|35=0|34=283|49=LAMB|52=20230508-15:24:19.307|56=XTRM|10=249|
20230508-15:24:19.431849000 : 8=FIXT.1.1|9=000053|35=0|49=XTRM|56=LAMB|34=282|52=20230508-15:24:19.355|10=187|
20230508-15:24:49.329512000 : 8=FIXT.1.1|9=53|35=0|34=284|49=LAMB|52=20230508-15:24:49.328|56=XTRM|10=000|
20230508-15:24:49.453862000 : 8=FIXT.1.1|9=000053|35=0|49=XTRM|56=LAMB|34=283|52=20230508-15:24:49.377|10=195|
20230508-15:25:19.330929000 : 8=FIXT.1.1|9=53|35=0|34=285|49=LAMB|52=20230508-15:25:19.330|56=XTRM|10=248|
20230508-15:25:19.455333000 : 8=FIXT.1.1|9=000053|35=0|49=XTRM|56=LAMB|34=284|52=20230508-15:25:19.379|10=196|
20230508-15:25:49.284963000 : 8=FIXT.1.1|9=53|35=0|34=286|49=LAMB|52=20230508-15:25:49.284|56=XTRM|10=004|
20230508-15:25:49.410503000 : 8=FIXT.1.1|9=000053|35=0|49=XTRM|56=LAMB|34=285|52=20230508-15:25:49.333|10=190|
20230508-15:26:19.164631000 : 8=FIXT.1.1|9=53|35=0|34=287|49=LAMB|52=20230508-15:26:19.164|56=XTRM|10=000|
20230508-15:26:19.290309000 : 8=FIXT.1.1|9=000053|35=0|49=XTRM|56=LAMB|34=286|52=20230508-15:26:19.213|10=186|
20230508-15:26:49.329879000 : 8=FIXT.1.1|9=53|35=0|34=288|49=LAMB|52=20230508-15:26:49.329|56=XTRM|10=007|
20230508-15:26:49.455120000 : 8=FIXT.1.1|9=000053|35=0|49=XTRM|56=LAMB|34=287|52=20230508-15:26:49.378|10=202|
20230508-15:27:19.361712000 : 8=FIXT.1.1|9=53|35=0|34=289|49=LAMB|52=20230508-15:27:19.361|56=XTRM|10=002|
20230508-15:27:19.486893000 : 8=FIXT.1.1|9=000053|35=0|49=XTRM|56=LAMB|34=288|52=20230508-15:27:19.410|10=188|
20230508-15:27:49.249212000 : 8=FIXT.1.1|9=53|35=0|34=290|49=LAMB|52=20230508-15:27:49.248|56=XTRM|10=001|
20230508-15:27:49.374637000 : 8=FIXT.1.1|9=000053|35=0|49=XTRM|56=LAMB|34=289|52=20230508-15:27:49.297|10=205|
20230508-15:28:19.364322000 : 8=FIXT.1.1|9=53|35=0|34=291|49=LAMB|52=20230508-15:28:19.363|56=XTRM|10=254|
20230508-15:28:19.489730000 : 8=FIXT.1.1|9=000053|35=0|49=XTRM|56=LAMB|34=290|52=20230508-15:28:19.412|10=184|
20230508-15:28:49.268855000 : 8=FIXT.1.1|9=53|35=0|34=292|49=LAMB|52=20230508-15:28:49.268|56=XTRM|10=006|
20230508-15:28:49.394007000 : 8=FIXT.1.1|9=000053|35=0|49=XTRM|56=LAMB|34=291|52=20230508-15:28:49.316|10=191|
20230508-15:29:19.331591000 : 8=FIXT.1.1|9=53|35=0|34=293|49=LAMB|52=20230508-15:29:19.331|56=XTRM|10=252|
20230508-15:29:19.456856000 : 8=FIXT.1.1|9=000053|35=0|49=XTRM|56=LAMB|34=292|52=20230508-15:29:19.379|10=199|
20230508-15:29:49.131335000 : 8=FIXT.1.1|9=53|35=0|34=294|49=LAMB|52=20230508-15:29:49.130|56=XTRM|10=253|
20230508-15:29:49.256425000 : 8=FIXT.1.1|9=000053|35=0|49=XTRM|56=LAMB|34=293|52=20230508-15:29:49.179|10=201|
20230508-15:30:19.011170000 : 8=FIXT.1.1|9=53|35=0|34=295|49=LAMB|52=20230508-15:30:19.010|56=XTRM|10=240|
20230508-15:30:19.136363000 : 8=FIXT.1.1|9=000053|35=0|49=XTRM|56=LAMB|34=294|52=20230508-15:30:19.058|10=187|
20230508-15:30:49.281794000 : 8=FIXT.1.1|9=53|35=0|34=296|49=LAMB|52=20230508-15:30:49.281|56=XTRM|10=254|
20230508-15:30:49.407044000 : 8=FIXT.1.1|9=000053|35=0|49=XTRM|56=LAMB|34=295|52=20230508-15:30:49.329|10=192|
20230508-15:31:19.197653000 : 8=FIXT.1.1|9=53|35=0|34=297|49=LAMB|52=20230508-15:31:19.197|56=XTRM|10=003|
20230508-15:31:19.322802000 : 8=FIXT.1.1|9=000053|35=0|49=XTRM|56=LAMB|34=296|52=20230508-15:31:19.245|10=188|
20230508-15:31:49.001908000 : 8=FIXT.1.1|9=53|35=0|34=298|49=LAMB|52=20230508-15:31:49.001|56=XTRM|10=247|
20230508-15:31:49.127106000 : 8=FIXT.1.1|9=000053|35=0|49=XTRM|56=LAMB|34=297|52=20230508-15:31:49.049|10=194|
20230508-15:32:19.013785000 : 8=FIXT.1.1|9=53|35=0|34=299|49=LAMB|52=20230508-15:32:19.013|56=XTRM|10=249|
20230508-15:32:19.139510000 : 8=FIXT.1.1|9=000053|35=0|49=XTRM|56=LAMB|34=298|52=20230508-15:32:19.061|10=187|
20230508-15:32:49.145634000 : 8=FIXT.1.1|9=53|35=0|34=300|49=LAMB|52=20230508-15:32:49.145|56=XTRM|10=241|
20230508-15:32:49.270643000 : 8=FIXT.1.1|9=000053|35=0|49=XTRM|56=LAMB|34=299|52=20230508-15:32:49.193|10=197|
20230508-15:33:19.037723000 : 8=FIXT.1.1|9=53|35=0|34=301|49=LAMB|52=20230508-15:33:19.037|56=XTRM|10=240|
20230508-15:33:19.162815000 : 8=FIXT.1.1|9=000053|35=0|49=XTRM|56=LAMB|34=300|52=20230508-15:33:19.085|10=178|
20230508-15:33:49.215946000 : 8=FIXT.1.1|9=53|35=0|34=302|49=LAMB|52=20230508-15:33:49.215|56=XTRM|10=242|
20230508-15:33:49.341554000 : 8=FIXT.1.1|9=000053|35=0|49=XTRM|56=LAMB|34=301|52=20230508-15:33:49.263|10=180|
20230508-15:34:19.005147000 : 8=FIXT.1.1|9=53|35=0|34=303|49=LAMB|52=20230508-15:34:19.004|56=XTRM|10=237|
20230508-15:34:19.130292000 : 8=FIXT.1.1|9=000053|35=0|49=XTRM|56=LAMB|34=302|52=20230508-15:34:19.052|10=175|
20230508-15:34:49.146852000 : 8=FIXT.1.1|9=53|35=0|34=304|49=LAMB|52=20230508-15:34:49.146|56=XTRM|10=248|
20230508-15:34:49.271936000 : 8=FIXT.1.1|9=000053|35=0|49=XTRM|56=LAMB|34=303|52=20230508-15:34:49.194|10=186|
20230508-15:35:19.020902000 : 8=FIXT.1.1|9=53|35=0|34=305|49=LAMB|52=20230508-15:35:19.020|56=XTRM|10=238|
20230508-15:35:19.146780000 : 8=FIXT.1.1|9=000053|35=0|49=XTRM|56=LAMB|34=304|52=20230508-15:35:19.069|10=186|
20230508-15:35:49.055978000 : 8=FIXT.1.1|9=53|35=0|34=306|49=LAMB|52=20230508-15:35:49.055|56=XTRM|10=250|
20230508-15:35:49.180382000 : 8=FIXT.1.1|9=000053|35=0|49=XTRM|56=LAMB|34=305|52=20230508-15:35:49.103|10=179|
20230508-15:36:19.092478000 : 8=FIXT.1.1|9=53|35=0|34=307|49=LAMB|52=20230508-15:36:19.092|56=XTRM|10=250|
20230508-15:36:19.217807000 : 8=FIXT.1.1|9=000053|35=0|49=XTRM|56=LAMB|34=306|52=20230508-15:36:19.140|10=179|
20230508-15:36:49.208390000 : 8=FIXT.1.1|9=53|35=0|34=308|49=LAMB|52=20230508-15:36:49.206|56=XTRM|10=251|
20230508-15:36:49.333813000 : 8=FIXT.1.1|9=000053|35=0|49=XTRM|56=LAMB|34=307|52=20230508-15:36:49.256|10=191|
20230508-15:37:19.191980000 : 8=FIXT.1.1|9=53|35=0|34=309|49=LAMB|52=20230508-15:37:19.191|56=XTRM|10=253|
20230508-15:37:19.317049000 : 8=FIXT.1.1|9=000053|35=0|49=XTRM|56=LAMB|34=308|52=20230508-15:37:19.239|10=191|
20230508-15:37:49.067289000 : 8=FIXT.1.1|9=53|35=0|34=310|49=LAMB|52=20230508-15:37:49.066|56=XTRM|10=249|
20230508-15:37:49.192627000 : 8=FIXT.1.1|9=000053|35=0|49=XTRM|56=LAMB|34=309|52=20230508-15:37:49.114|10=187|
20230508-15:38:19.177568000 : 8=FIXT.1.1|9=53|35=0|34=311|49=LAMB|52=20230508-15:38:19.177|56=XTRM|10=251|
20230508-15:38:19.302814000 : 8=FIXT.1.1|9=000053|35=0|49=XTRM|56=LAMB|34=310|52=20230508-15:38:19.224|10=179|
20230508-15:38:49.100993000 : 8=FIXT.1.1|9=53|35=0|34=312|49=LAMB|52=20230508-15:38:49.100|56=XTRM|10=241|
20230508-15:38:49.227042000 : 8=FIXT.1.1|9=000053|35=0|49=XTRM|56=LAMB|34=311|52=20230508-15:38:49.149|10=189|
20230508-15:39:19.046338000 : 8=FIXT.1.1|9=53|35=0|34=313|49=LAMB|52=20230508-15:39:19.045|56=XTRM|10=248|
20230508-15:39:19.171974000 : 8=FIXT.1.1|9=000053|35=0|49=XTRM|56=LAMB|34=312|52=20230508-15:39:19.094|10=187|
20230508-15:39:49.050606000 : 8=FIXT.1.1|9=53|35=0|34=314|49=LAMB|52=20230508-15:39:49.050|56=XTRM|10=248|
20230508-15:39:49.175700000 : 8=FIXT.1.1|9=000053|35=0|49=XTRM|56=LAMB|34=313|52=20230508-15:39:49.097|10=194|
20230508-15:40:19.115728000 : 8=FIXT.1.1|9=53|35=0|34=315|49=LAMB|52=20230508-15:40:19.115|56=XTRM|10=240|
20230508-15:40:19.215112000 : 8=FIXT.1.1|9=000053|35=0|49=XTRM|56=LAMB|34=314|52=20230508-15:40:19.137|10=179|
20230508-15:40:49.096966000 : 8=FIXT.1.1|9=53|35=0|34=316|49=LAMB|52=20230508-15:40:49.096|56=XTRM|10=252|
20230508-15:40:49.222704000 : 8=FIXT.1.1|9=000053|35=0|49=XTRM|56=LAMB|34=315|52=20230508-15:40:49.145|10=182|
20230508-15:41:19.050967000 : 8=FIXT.1.1|9=53|35=0|34=317|49=LAMB|52=20230508-15:41:19.050|56=XTRM|10=241|
20230508-15:41:19.176180000 : 8=FIXT.1.1|9=000053|35=0|49=XTRM|56=LAMB|34=316|52=20230508-15:41:19.098|10=188|
20230508-15:41:49.013285000 : 8=FIXT.1.1|9=53|35=0|34=318|49=LAMB|52=20230508-15:41:49.012|56=XTRM|10=243|
20230508-15:41:49.138491000 : 8=FIXT.1.1|9=000053|35=0|49=XTRM|56=LAMB|34=317|52=20230508-15:41:49.060|10=181|
20230508-15:42:19.337836000 : 8=FIXT.1.1|9=53|35=0|34=319|49=LAMB|52=20230508-15:42:19.337|56=XTRM|10=252|
20230508-15:42:19.354372000 : 8=FIXT.1.1|9=000053|35=0|49=XTRM|56=LAMB|34=318|52=20230508-15:42:19.276|10=189|
20230508-15:42:49.281938000 : 8=FIXT.1.1|9=53|35=0|34=320|49=LAMB|52=20230508-15:42:49.281|56=XTRM|10=245|
20230508-15:42:49.390478000 : 8=FIXT.1.1|9=000053|35=0|49=XTRM|56=LAMB|34=319|52=20230508-15:42:49.312|10=184|
20230508-15:43:19.212216000 : 8=FIXT.1.1|9=53|35=0|34=321|49=LAMB|52=20230508-15:43:19.211|56=XTRM|10=237|
20230508-15:43:19.336995000 : 8=FIXT.1.1|9=000053|35=0|49=XTRM|56=LAMB|34=320|52=20230508-15:43:19.259|10=184|
20230508-15:43:49.054756000 : 8=FIXT.1.1|9=53|35=0|34=322|49=LAMB|52=20230508-15:43:49.054|56=XTRM|10=246|
20230508-15:43:49.179840000 : 8=FIXT.1.1|9=000053|35=0|49=XTRM|56=LAMB|34=321|52=20230508-15:43:49.101|10=174|
20230508-15:44:19.498308000 : 8=FIXT.1.1|9=000053|35=0|49=XTRM|56=LAMB|34=322|52=20230508-15:44:19.420|10=177|
20230508-15:44:19.498968000 : 8=FIXT.1.1|9=53|35=0|34=323|49=LAMB|52=20230508-15:44:19.498|56=XTRM|10=001|
20230508-15:44:49.004672000 : 8=FIXT.1.1|9=53|35=0|34=324|49=LAMB|52=20230508-15:44:49.004|56=XTRM|10=244|
20230508-15:44:49.129473000 : 8=FIXT.1.1|9=000053|35=0|49=XTRM|56=LAMB|34=323|52=20230508-15:44:49.051|10=181|
20230508-15:45:19.510263000 : 8=FIXT.1.1|9=53|35=0|34=325|49=LAMB|52=20230508-15:45:19.509|56=XTRM|10=253|
20230508-15:45:19.579170000 : 8=FIXT.1.1|9=000053|35=0|49=XTRM|56=LAMB|34=324|52=20230508-15:45:19.500|10=179|
20230508-15:45:49.617152000 : 8=FIXT.1.1|9=000053|35=0|49=XTRM|56=LAMB|34=325|52=20230508-15:45:49.538|10=194|
20230508-15:45:49.617957000 : 8=FIXT.1.1|9=53|35=0|34=326|49=LAMB|52=20230508-15:45:49.617|56=XTRM|10=001|
20230508-15:46:19.648872000 : 8=FIXT.1.1|9=000053|35=0|49=XTRM|56=LAMB|34=326|52=20230508-15:46:19.570|10=189|
20230508-15:46:19.649766000 : 8=FIXT.1.1|9=53|35=0|34=327|49=LAMB|52=20230508-15:46:19.649|56=XTRM|10=005|
20230508-15:46:49.684470000 : 8=FIXT.1.1|9=000053|35=0|49=XTRM|56=LAMB|34=327|52=20230508-15:46:49.605|10=192|
20230508-15:46:49.685247000 : 8=FIXT.1.1|9=53|35=0|34=328|49=LAMB|52=20230508-15:46:49.684|56=XTRM|10=008|
20230508-15:47:19.630776000 : 8=FIXT.1.1|9=53|35=0|34=329|49=LAMB|52=20230508-15:47:19.630|56=XTRM|10=254|
20230508-15:47:19.719298000 : 8=FIXT.1.1|9=000053|35=0|49=XTRM|56=LAMB|34=328|52=20230508-15:47:19.640|10=190|
20230508-15:47:49.551466000 : 8=FIXT.1.1|9=53|35=0|34=330|49=LAMB|52=20230508-15:47:49.550|56=XTRM|10=250|
20230508-15:47:49.676603000 : 8=FIXT.1.1|9=000053|35=0|49=XTRM|56=LAMB|34=329|52=20230508-15:47:49.598|10=206|
20230508-15:48:19.390576000 : 8=FIXT.1.1|9=53|35=0|34=331|49=LAMB|52=20230508-15:48:19.390|56=XTRM|10=251|
20230508-15:48:19.516181000 : 8=FIXT.1.1|9=000053|35=0|49=XTRM|56=LAMB|34=330|52=20230508-15:48:19.437|10=188|
20230508-15:48:49.120724000 : 8=FIXT.1.1|9=53|35=0|34=332|49=LAMB|52=20230508-15:48:49.120|56=XTRM|10=246|
20230508-15:48:49.246196000 : 8=FIXT.1.1|9=000053|35=0|49=XTRM|56=LAMB|34=331|52=20230508-15:48:49.167|10=192|
20230508-15:49:19.678677000 : 8=FIXT.1.1|9=53|35=0|34=333|49=LAMB|52=20230508-15:49:19.678|56=XTRM|10=007|
20230508-15:49:19.803684000 : 8=FIXT.1.1|9=000053|35=0|49=XTRM|56=LAMB|34=332|52=20230508-15:49:19.725|10=191|
20230508-15:49:49.167588000 : 8=FIXT.1.1|9=53|35=0|34=334|49=LAMB|52=20230508-15:49:49.167|56=XTRM|10=004|
20230508-15:49:49.292822000 : 8=FIXT.1.1|9=000053|35=0|49=XTRM|56=LAMB|34=333|52=20230508-15:49:49.214|10=188|
20230508-15:50:19.494234000 : 8=FIXT.1.1|9=53|35=0|34=335|49=LAMB|52=20230508-15:50:19.493|56=XTRM|10=252|
20230508-15:50:19.619757000 : 8=FIXT.1.1|9=000053|35=0|49=XTRM|56=LAMB|34=334|52=20230508-15:50:19.541|10=181|
20230508-15:50:49.692990000 : 8=FIXT.1.1|9=53|35=0|34=336|49=LAMB|52=20230508-15:50:49.692|56=XTRM|10=001|
20230508-15:50:49.818412000 : 8=FIXT.1.1|9=000053|35=0|49=XTRM|56=LAMB|34=335|52=20230508-15:50:49.739|10=194|
20230510-11:19:14.828229000 : 8=FIXT.1.1|9=113|35=A|34=1|49=LAMB|52=20230510-11:19:14.827|56=XTRM|98=0|108=30|141=Y|553=LAMBFIXMGR|554=Pedlane11@|1137=FIX50SP1|10=049|
20230510-11:19:17.484948000 : 8=FIXT.1.1|9=000076|35=A|49=XTRM|56=LAMB|34=1|52=20230510-11:19:17.406|98=0|108=30|141=Y|1137=8|10=226|
20230510-11:19:23.587854000 : 8=FIXT.1.1|9=131|35=D|34=2|49=LAMB|52=20230510-11:19:23.587|56=XTRM|11=00001|22=99|38=1|40=2|44=100|48=TRANSCORP|54=1|59=0|60=20230510-11:19:23.587|10=070|
20230510-11:19:23.752133000 : 8=FIXT.1.1|9=000336|35=8|49=XTRM|56=LAMB|34=2|57=LAMBFIXMGR|52=20230510-11:19:23.673|37=NONE|11=00001|453=3|448=LAMBFIXMGR|447=C|452=11|448=LAMBFIXMGR|447=C|452=36|448=LAMB|447=C|452=7|17=12|150=8|39=8|103=99|48=TRANSCORP|22=99|54=1|38=1|40=2|44=100.0000000|59=0|151=0|14=0|60=20230510-11:19:23.652|58=(1037): Account choice not supported for this message|10=120|
20230510-11:19:23.752879000 : 8=FIXT.1.1|9=107|35=3|34=3|49=LAMB|52=20230510-11:19:23.752|56=XTRM|45=2|58=Tag appears more than once|371=447|372=8|373=13|10=146|
