2023-05-10 11:19:13,687 : (Admin) S >> 8=FIXT.1.1|9=53|35=5|34=337|49=LAMB|52=20230510-11:19:13.687|56=XTRM|10=252|
2023-05-10 11:19:14,827 : (Admin) S >> 8=FIXT.1.1|9=113|35=A|34=1|49=LAMB|52=20230510-11:19:14.827|56=XTRM|98=0|108=30|141=Y|553=LAMBFIXMGR|554=Pedlane11@|1137=FIX50SP1|10=049|
2023-05-10 11:19:17,485 : (Admin) R << 8=FIXT.1.1|9=76|35=A|34=1|49=XTRM|52=20230510-11:19:17.406|56=LAMB|98=0|108=30|141=Y|1137=8|10=034|
2023-05-10 11:19:23,587 : (App) S >> 8=FIXT.1.1|9=131|35=D|34=2|49=LAMB|52=20230510-11:19:23.587|56=XTRM|11=00001|22=99|38=1|40=2|44=100|48=TRANSCORP|54=1|59=0|60=20230510-11:19:23.587|10=070|
2023-05-10 11:19:23,752 : (Admin) S >> 8=FIXT.1.1|9=107|35=3|34=3|49=LAMB|52=20230510-11:19:23.752|56=XTRM|45=2|58=Tag appears more than once|371=447|372=8|373=13|10=146|
